{
  "_format": "hh-sol-artifact-1",
  "contractName": "NFTMarketplace",
  "sourceName": "contracts/NFTMarketplace.sol",
  "abi": [
    {
      "inputs": [],
      "stateMutability": "nonpayable",
      "type": "constructor"
    },
    {
      "anonymous": false,
      "inputs": [
        {
          "indexed": true,
          "internalType": "address",
          "name": "owner",
          "type": "address"
        },
        {
          "indexed": true,
          "internalType": "address",
          "name": "approved",
          "type": "address"
        },
        {
          "indexed": true,
          "internalType": "uint256",
          "name": "tokenId",
          "type": "uint256"
        }
      ],
      "name": "Approval",
      "type": "event"
    },
    {
      "anonymous": false,
      "inputs": [
        {
          "indexed": true,
          "internalType": "address",
          "name": "owner",
          "type": "address"
        },
        {
          "indexed": true,
          "internalType": "address",
          "name": "operator",
          "type": "address"
        },
        {
          "indexed": false,
          "internalType": "bool",
          "name": "approved",
          "type": "bool"
        }
      ],
      "name": "ApprovalForAll",
      "type": "event"
    },
    {
      "anonymous": false,
      "inputs": [
        {
          "indexed": true,
          "internalType": "uint256",
          "name": "tokenId",
          "type": "uint256"
        },
        {
          "indexed": false,
          "internalType": "address",
          "name": "seller",
          "type": "address"
        },
        {
          "indexed": false,
          "internalType": "address",
          "name": "owner",
          "type": "address"
        },
        {
          "indexed": false,
          "internalType": "uint256",
          "name": "price",
          "type": "uint256"
        },
        {
          "indexed": false,
          "internalType": "bool",
          "name": "sold",
          "type": "bool"
        }
      ],
      "name": "MarketItemCreated",
      "type": "event"
    },
    {
      "anonymous": false,
      "inputs": [
        {
          "indexed": true,
          "internalType": "address",
          "name": "from",
          "type": "address"
        },
        {
          "indexed": true,
          "internalType": "address",
          "name": "to",
          "type": "address"
        },
        {
          "indexed": true,
          "internalType": "uint256",
          "name": "tokenId",
          "type": "uint256"
        }
      ],
      "name": "Transfer",
      "type": "event"
    },
    {
      "anonymous": false,
      "inputs": [
        {
          "indexed": false,
          "internalType": "address",
          "name": "account",
          "type": "address"
        },
        {
          "indexed": false,
          "internalType": "string",
          "name": "name",
          "type": "string"
        }
      ],
      "name": "WhitelistAdded",
      "type": "event"
    },
    {
      "inputs": [
        {
          "internalType": "address",
          "name": "account",
          "type": "address"
        },
        {
          "internalType": "string",
          "name": "name",
          "type": "string"
        }
      ],
      "name": "addToWhitelist",
      "outputs": [],
      "stateMutability": "nonpayable",
      "type": "function"
    },
    {
      "inputs": [
        {
          "internalType": "address",
          "name": "to",
          "type": "address"
        },
        {
          "internalType": "uint256",
          "name": "tokenId",
          "type": "uint256"
        }
      ],
      "name": "approve",
      "outputs": [],
      "stateMutability": "nonpayable",
      "type": "function"
    },
    {
      "inputs": [
        {
          "internalType": "address",
          "name": "owner",
          "type": "address"
        }
      ],
      "name": "balanceOf",
      "outputs": [
        {
          "internalType": "uint256",
          "name": "",
          "type": "uint256"
        }
      ],
      "stateMutability": "view",
      "type": "function"
    },
    {
      "inputs": [
        {
          "internalType": "uint256",
          "name": "tokenId",
          "type": "uint256"
        }
      ],
      "name": "createMarketSale",
      "outputs": [],
      "stateMutability": "payable",
      "type": "function"
    },
    {
      "inputs": [
        {
          "internalType": "string",
          "name": "tokenURI",
          "type": "string"
        },
        {
          "internalType": "uint256",
          "name": "price",
          "type": "uint256"
        }
      ],
      "name": "createToken",
      "outputs": [
        {
          "internalType": "uint256",
          "name": "",
          "type": "uint256"
        }
      ],
      "stateMutability": "payable",
      "type": "function"
    },
    {
      "inputs": [],
      "name": "fetchItemsListed",
      "outputs": [
        {
          "components": [
            {
              "internalType": "uint256",
              "name": "tokenId",
              "type": "uint256"
            },
            {
              "internalType": "address payable",
              "name": "seller",
              "type": "address"
            },
            {
              "internalType": "address payable",
              "name": "owner",
              "type": "address"
            },
            {
              "internalType": "uint256",
              "name": "price",
              "type": "uint256"
            },
            {
              "internalType": "bool",
              "name": "sold",
              "type": "bool"
            }
          ],
          "internalType": "struct NFTMarketplace.MarketItem[]",
          "name": "",
          "type": "tuple[]"
        }
      ],
      "stateMutability": "view",
      "type": "function"
    },
    {
      "inputs": [],
      "name": "fetchMarketItems",
      "outputs": [
        {
          "components": [
            {
              "internalType": "uint256",
              "name": "tokenId",
              "type": "uint256"
            },
            {
              "internalType": "address payable",
              "name": "seller",
              "type": "address"
            },
            {
              "internalType": "address payable",
              "name": "owner",
              "type": "address"
            },
            {
              "internalType": "uint256",
              "name": "price",
              "type": "uint256"
            },
            {
              "internalType": "bool",
              "name": "sold",
              "type": "bool"
            }
          ],
          "internalType": "struct NFTMarketplace.MarketItem[]",
          "name": "",
          "type": "tuple[]"
        }
      ],
      "stateMutability": "view",
      "type": "function"
    },
    {
      "inputs": [],
      "name": "fetchMyNFTs",
      "outputs": [
        {
          "components": [
            {
              "internalType": "uint256",
              "name": "tokenId",
              "type": "uint256"
            },
            {
              "internalType": "address payable",
              "name": "seller",
              "type": "address"
            },
            {
              "internalType": "address payable",
              "name": "owner",
              "type": "address"
            },
            {
              "internalType": "uint256",
              "name": "price",
              "type": "uint256"
            },
            {
              "internalType": "bool",
              "name": "sold",
              "type": "bool"
            }
          ],
          "internalType": "struct NFTMarketplace.MarketItem[]",
          "name": "",
          "type": "tuple[]"
        }
      ],
      "stateMutability": "view",
      "type": "function"
    },
    {
      "inputs": [
        {
          "internalType": "uint256",
          "name": "tokenId",
          "type": "uint256"
        }
      ],
      "name": "getApproved",
      "outputs": [
        {
          "internalType": "address",
          "name": "",
          "type": "address"
        }
      ],
      "stateMutability": "view",
      "type": "function"
    },
    {
      "inputs": [],
      "name": "getListingPrice",
      "outputs": [
        {
          "internalType": "uint256",
          "name": "",
          "type": "uint256"
        }
      ],
      "stateMutability": "view",
      "type": "function"
    },
    {
      "inputs": [],
      "name": "getOwner",
      "outputs": [
        {
          "internalType": "address",
          "name": "",
          "type": "address"
        }
      ],
      "stateMutability": "view",
      "type": "function"
    },
    {
      "inputs": [
        {
          "internalType": "address",
          "name": "owner",
          "type": "address"
        },
        {
          "internalType": "address",
          "name": "operator",
          "type": "address"
        }
      ],
      "name": "isApprovedForAll",
      "outputs": [
        {
          "internalType": "bool",
          "name": "",
          "type": "bool"
        }
      ],
      "stateMutability": "view",
      "type": "function"
    },
    {
      "inputs": [
        {
          "internalType": "address",
          "name": "account",
          "type": "address"
        }
      ],
      "name": "isWhitelisted",
      "outputs": [
        {
          "internalType": "bool",
          "name": "",
          "type": "bool"
        }
      ],
      "stateMutability": "view",
      "type": "function"
    },
    {
      "inputs": [],
      "name": "name",
      "outputs": [
        {
          "internalType": "string",
          "name": "",
          "type": "string"
        }
      ],
      "stateMutability": "view",
      "type": "function"
    },
    {
      "inputs": [],
      "name": "owner",
      "outputs": [
        {
          "internalType": "address payable",
          "name": "",
          "type": "address"
        }
      ],
      "stateMutability": "view",
      "type": "function"
    },
    {
      "inputs": [
        {
          "internalType": "uint256",
          "name": "tokenId",
          "type": "uint256"
        }
      ],
      "name": "ownerOf",
      "outputs": [
        {
          "internalType": "address",
          "name": "",
          "type": "address"
        }
      ],
      "stateMutability": "view",
      "type": "function"
    },
    {
      "inputs": [
        {
          "internalType": "uint256",
          "name": "tokenId",
          "type": "uint256"
        },
        {
          "internalType": "uint256",
          "name": "price",
          "type": "uint256"
        }
      ],
      "name": "resellToken",
      "outputs": [],
      "stateMutability": "payable",
      "type": "function"
    },
    {
      "inputs": [
        {
          "internalType": "address",
          "name": "from",
          "type": "address"
        },
        {
          "internalType": "address",
          "name": "to",
          "type": "address"
        },
        {
          "internalType": "uint256",
          "name": "tokenId",
          "type": "uint256"
        }
      ],
      "name": "safeTransferFrom",
      "outputs": [],
      "stateMutability": "nonpayable",
      "type": "function"
    },
    {
      "inputs": [
        {
          "internalType": "address",
          "name": "from",
          "type": "address"
        },
        {
          "internalType": "address",
          "name": "to",
          "type": "address"
        },
        {
          "internalType": "uint256",
          "name": "tokenId",
          "type": "uint256"
        },
        {
          "internalType": "bytes",
          "name": "data",
          "type": "bytes"
        }
      ],
      "name": "safeTransferFrom",
      "outputs": [],
      "stateMutability": "nonpayable",
      "type": "function"
    },
    {
      "inputs": [
        {
          "internalType": "address",
          "name": "operator",
          "type": "address"
        },
        {
          "internalType": "bool",
          "name": "approved",
          "type": "bool"
        }
      ],
      "name": "setApprovalForAll",
      "outputs": [],
      "stateMutability": "nonpayable",
      "type": "function"
    },
    {
      "inputs": [
        {
          "internalType": "bytes4",
          "name": "interfaceId",
          "type": "bytes4"
        }
      ],
      "name": "supportsInterface",
      "outputs": [
        {
          "internalType": "bool",
          "name": "",
          "type": "bool"
        }
      ],
      "stateMutability": "view",
      "type": "function"
    },
    {
      "inputs": [],
      "name": "symbol",
      "outputs": [
        {
          "internalType": "string",
          "name": "",
          "type": "string"
        }
      ],
      "stateMutability": "view",
      "type": "function"
    },
    {
      "inputs": [
        {
          "internalType": "uint256",
          "name": "tokenId",
          "type": "uint256"
        }
      ],
      "name": "tokenURI",
      "outputs": [
        {
          "internalType": "string",
          "name": "",
          "type": "string"
        }
      ],
      "stateMutability": "view",
      "type": "function"
    },
    {
      "inputs": [
        {
          "internalType": "address",
          "name": "from",
          "type": "address"
        },
        {
          "internalType": "address",
          "name": "to",
          "type": "address"
        },
        {
          "internalType": "uint256",
          "name": "tokenId",
          "type": "uint256"
        }
      ],
      "name": "transferFrom",
      "outputs": [],
      "stateMutability": "nonpayable",
      "type": "function"
    },
    {
      "inputs": [
        {
          "internalType": "uint256",
          "name": "_listingPrice",
          "type": "uint256"
        }
      ],
      "name": "updateListingPrice",
      "outputs": [],
      "stateMutability": "payable",
      "type": "function"
    },
    {
      "inputs": [
        {
          "internalType": "address",
          "name": "",
          "type": "address"
        }
      ],
      "name": "whitelist",
      "outputs": [
        {
          "internalType": "address",
          "name": "account",
          "type": "address"
        },
        {
          "internalType": "string",
          "name": "name",
          "type": "string"
        }
      ],
      "stateMutability": "view",
      "type": "function"
    },
    {
      "inputs": [
        {
          "internalType": "uint256",
          "name": "",
          "type": "uint256"
        }
      ],
      "name": "whitelistArray",
      "outputs": [
        {
          "internalType": "address",
          "name": "account",
          "type": "address"
        },
        {
          "internalType": "string",
          "name": "name",
          "type": "string"
        }
      ],
      "stateMutability": "view",
      "type": "function"
    }
  ],
  "bytecode": "0x60806040526658d15e176280006009553480156200001c57600080fd5b506040518060400160405280600981526020017f4e465420546f6b656e00000000000000000000000000000000000000000000008152506040518060400160405280600681526020017f5355204e465400000000000000000000000000000000000000000000000000008152508160009080519060200190620000a1929190620003cb565b508060019080519060200190620000ba929190620003cb565b50505033600a60006101000a81548173ffffffffffffffffffffffffffffffffffffffff021916908373ffffffffffffffffffffffffffffffffffffffff16021790555062000145336040518060400160405280601181526020017f636f6e74726163744f776e6572556775720000000000000000000000000000008152506200014b60201b60201c565b62000695565b600073ffffffffffffffffffffffffffffffffffffffff16600c60008473ffffffffffffffffffffffffffffffffffffffff1673ffffffffffffffffffffffffffffffffffffffff16815260200190815260200160002060000160009054906101000a900473ffffffffffffffffffffffffffffffffffffffff1673ffffffffffffffffffffffffffffffffffffffff16146200021f576040517f08c379a0000000000000000000000000000000000000000000000000000000008152600401620002169062000528565b60405180910390fd5b600060405180604001604052808473ffffffffffffffffffffffffffffffffffffffff16815260200183815250905080600c60008573ffffffffffffffffffffffffffffffffffffffff1673ffffffffffffffffffffffffffffffffffffffff16815260200190815260200160002060008201518160000160006101000a81548173ffffffffffffffffffffffffffffffffffffffff021916908373ffffffffffffffffffffffffffffffffffffffff1602179055506020820151816001019080519060200190620002f3929190620003cb565b50905050600d81908060018154018082558091505060019003906000526020600020906002020160009091909190915060008201518160000160006101000a81548173ffffffffffffffffffffffffffffffffffffffff021916908373ffffffffffffffffffffffffffffffffffffffff160217905550602082015181600101908051906020019062000388929190620003cb565b5050507fc099bb576ab769941d5df2a2e3a78102b73a991c8995d492f8ff2b716fe755348383604051620003be929190620004f4565b60405180910390a1505050565b828054620003d990620005d0565b90600052602060002090601f016020900481019282620003fd576000855562000449565b82601f106200041857805160ff191683800117855562000449565b8280016001018555821562000449579182015b82811115620004485782518255916020019190600101906200042b565b5b5090506200045891906200045c565b5090565b5b80821115620004775760008160009055506001016200045d565b5090565b620004868162000566565b82525050565b600062000499826200054a565b620004a5818562000555565b9350620004b78185602086016200059a565b620004c28162000635565b840191505092915050565b6000620004dc60248362000555565b9150620004e98262000646565b604082019050919050565b60006040820190506200050b60008301856200047b565b81810360208301526200051f81846200048c565b90509392505050565b600060208201905081810360008301526200054381620004cd565b9050919050565b600081519050919050565b600082825260208201905092915050565b600062000573826200057a565b9050919050565b600073ffffffffffffffffffffffffffffffffffffffff82169050919050565b60005b83811015620005ba5780820151818401526020810190506200059d565b83811115620005ca576000848401525b50505050565b60006002820490506001821680620005e957607f821691505b602082108114156200060057620005ff62000606565b5b50919050565b7f4e487b7100000000000000000000000000000000000000000000000000000000600052602260045260246000fd5b6000601f19601f8301169050919050565b7f4164647265737320697320616c7265616479206f6e207468652077686974656c60008201527f6973742e00000000000000000000000000000000000000000000000000000000602082015250565b614c4680620006a56000396000f3fe60806040526004361061019c5760003560e01c806370a08231116100ec578063ae677aa31161008a578063c87b56dd11610064578063c87b56dd146105c6578063d251fefc14610603578063e219fc7514610641578063e985e9c51461065d5761019c565b8063ae677aa314610565578063b88d4fde14610581578063be9af536146105aa5761019c565b80638da5cb5b116100c65780638da5cb5b146104a857806395d89b41146104d35780639b19251a146104fe578063a22cb4651461053c5761019c565b806370a082311461041057806372b3b6201461044d578063893d20e81461047d5761019c565b80631a533daa116101595780633af32abf116101335780633af32abf1461034257806342842e0e1461037f57806345f8fa80146103a85780636352211e146103d35761019c565b80631a533daa146102c5578063202e3740146102ee57806323b872dd146103195761019c565b806301ffc9a7146101a157806306fdde03146101de578063081812fc14610209578063095ea7b3146102465780630f08efe01461026f57806312e855851461029a575b600080fd5b3480156101ad57600080fd5b506101c860048036038101906101c39190613907565b61069a565b6040516101d59190613ff5565b60405180910390f35b3480156101ea57600080fd5b506101f361077c565b6040516102009190614010565b60405180910390f35b34801561021557600080fd5b50610230600480360381019061022b91906139ad565b61080e565b60405161023d9190613edc565b60405180910390f35b34801561025257600080fd5b5061026d600480360381019061026891906138cb565b610854565b005b34801561027b57600080fd5b5061028461096c565b6040516102919190613fd3565b60405180910390f35b3480156102a657600080fd5b506102af610c21565b6040516102bc91906142b2565b60405180910390f35b3480156102d157600080fd5b506102ec60048036038101906102e79190613877565b610c2b565b005b3480156102fa57600080fd5b50610303610ea2565b6040516103109190613fd3565b60405180910390f35b34801561032557600080fd5b50610340600480360381019061033b9190613771565b6111dc565b005b34801561034e57600080fd5b506103696004803603810190610364919061370c565b61123c565b6040516103769190613ff5565b60405180910390f35b34801561038b57600080fd5b506103a660048036038101906103a19190613771565b6112d7565b005b3480156103b457600080fd5b506103bd6112f7565b6040516103ca9190613fd3565b60405180910390f35b3480156103df57600080fd5b506103fa60048036038101906103f591906139ad565b611631565b6040516104079190613edc565b60405180910390f35b34801561041c57600080fd5b506104376004803603810190610432919061370c565b6116b8565b60405161044491906142b2565b60405180910390f35b61046760048036038101906104629190613959565b611770565b60405161047491906142b2565b60405180910390f35b34801561048957600080fd5b506104926117b2565b60405161049f9190613edc565b60405180910390f35b3480156104b457600080fd5b506104bd6117dc565b6040516104ca9190613ef7565b60405180910390f35b3480156104df57600080fd5b506104e8611802565b6040516104f59190614010565b60405180910390f35b34801561050a57600080fd5b506105256004803603810190610520919061370c565b611894565b604051610533929190613fa3565b60405180910390f35b34801561054857600080fd5b50610563600480360381019061055e919061383b565b611960565b005b61057f600480360381019061057a91906139ad565b611976565b005b34801561058d57600080fd5b506105a860048036038101906105a391906137c0565b611aa0565b005b6105c460048036038101906105bf91906139ad565b611b02565b005b3480156105d257600080fd5b506105ed60048036038101906105e891906139ad565b611d3a565b6040516105fa9190614010565b60405180910390f35b34801561060f57600080fd5b5061062a600480360381019061062591906139ad565b611e4d565b604051610638929190613fa3565b60405180910390f35b61065b600480360381019061065691906139d6565b611f29565b005b34801561066957600080fd5b50610684600480360381019061067f9190613735565b61211e565b6040516106919190613ff5565b60405180910390f35b60007f80ac58cd000000000000000000000000000000000000000000000000000000007bffffffffffffffffffffffffffffffffffffffffffffffffffffffff1916827bffffffffffffffffffffffffffffffffffffffffffffffffffffffff1916148061076557507f5b5e139f000000000000000000000000000000000000000000000000000000007bffffffffffffffffffffffffffffffffffffffffffffffffffffffff1916827bffffffffffffffffffffffffffffffffffffffffffffffffffffffff1916145b806107755750610774826121b2565b5b9050919050565b60606000805461078b90614522565b80601f01602080910402602001604051908101604052809291908181526020018280546107b790614522565b80156108045780601f106107d957610100808354040283529160200191610804565b820191906000526020600020905b8154815290600101906020018083116107e757829003601f168201915b5050505050905090565b60006108198261221c565b6004600083815260200190815260200160002060009054906101000a900473ffffffffffffffffffffffffffffffffffffffff169050919050565b600061085f82611631565b90508073ffffffffffffffffffffffffffffffffffffffff168373ffffffffffffffffffffffffffffffffffffffff1614156108d0576040517f08c379a00000000000000000000000000000000000000000000000000000000081526004016108c7906141f2565b60405180910390fd5b8073ffffffffffffffffffffffffffffffffffffffff166108ef612267565b73ffffffffffffffffffffffffffffffffffffffff16148061091e575061091d81610918612267565b61211e565b5b61095d576040517f08c379a000000000000000000000000000000000000000000000000000000000815260040161095490614232565b60405180910390fd5b610967838361226f565b505050565b6060600061097a6007612328565b905060006109886008612328565b6109926007612328565b61099c9190614426565b90506000808267ffffffffffffffff8111156109e1577f4e487b7100000000000000000000000000000000000000000000000000000000600052604160045260246000fd5b604051908082528060200260200182016040528015610a1a57816020015b610a076134d3565b8152602001906001900390816109ff5790505b50905060005b84811015610c16573073ffffffffffffffffffffffffffffffffffffffff16600b6000600184610a5091906143d0565b815260200190815260200160002060020160009054906101000a900473ffffffffffffffffffffffffffffffffffffffff1673ffffffffffffffffffffffffffffffffffffffff161415610c03576000600182610aad91906143d0565b90506000600b60008381526020019081526020016000209050806040518060a0016040529081600082015481526020016001820160009054906101000a900473ffffffffffffffffffffffffffffffffffffffff1673ffffffffffffffffffffffffffffffffffffffff1673ffffffffffffffffffffffffffffffffffffffff1681526020016002820160009054906101000a900473ffffffffffffffffffffffffffffffffffffffff1673ffffffffffffffffffffffffffffffffffffffff1673ffffffffffffffffffffffffffffffffffffffff168152602001600382015481526020016004820160009054906101000a900460ff161515151581525050848681518110610be6577f4e487b7100000000000000000000000000000000000000000000000000000000600052603260045260246000fd5b6020026020010181905250600185610bfe91906143d0565b945050505b8080610c0e90614585565b915050610a20565b508094505050505090565b6000600954905090565b600073ffffffffffffffffffffffffffffffffffffffff16600c60008473ffffffffffffffffffffffffffffffffffffffff1673ffffffffffffffffffffffffffffffffffffffff16815260200190815260200160002060000160009054906101000a900473ffffffffffffffffffffffffffffffffffffffff1673ffffffffffffffffffffffffffffffffffffffff1614610cfc576040517f08c379a0000000000000000000000000000000000000000000000000000000008152600401610cf390614252565b60405180910390fd5b600060405180604001604052808473ffffffffffffffffffffffffffffffffffffffff16815260200183815250905080600c60008573ffffffffffffffffffffffffffffffffffffffff1673ffffffffffffffffffffffffffffffffffffffff16815260200190815260200160002060008201518160000160006101000a81548173ffffffffffffffffffffffffffffffffffffffff021916908373ffffffffffffffffffffffffffffffffffffffff1602179055506020820151816001019080519060200190610dce929190613530565b50905050600d81908060018154018082558091505060019003906000526020600020906002020160009091909190915060008201518160000160006101000a81548173ffffffffffffffffffffffffffffffffffffffff021916908373ffffffffffffffffffffffffffffffffffffffff1602179055506020820151816001019080519060200190610e61929190613530565b5050507fc099bb576ab769941d5df2a2e3a78102b73a991c8995d492f8ff2b716fe755348383604051610e95929190613fa3565b60405180910390a1505050565b60606000610eb06007612328565b905060008060005b83811015610f59573373ffffffffffffffffffffffffffffffffffffffff16600b6000600184610ee891906143d0565b815260200190815260200160002060020160009054906101000a900473ffffffffffffffffffffffffffffffffffffffff1673ffffffffffffffffffffffffffffffffffffffff161415610f4657600183610f4391906143d0565b92505b8080610f5190614585565b915050610eb8565b5060008267ffffffffffffffff811115610f9c577f4e487b7100000000000000000000000000000000000000000000000000000000600052604160045260246000fd5b604051908082528060200260200182016040528015610fd557816020015b610fc26134d3565b815260200190600190039081610fba5790505b50905060005b848110156111d1573373ffffffffffffffffffffffffffffffffffffffff16600b600060018461100b91906143d0565b815260200190815260200160002060020160009054906101000a900473ffffffffffffffffffffffffffffffffffffffff1673ffffffffffffffffffffffffffffffffffffffff1614156111be57600060018261106891906143d0565b90506000600b60008381526020019081526020016000209050806040518060a0016040529081600082015481526020016001820160009054906101000a900473ffffffffffffffffffffffffffffffffffffffff1673ffffffffffffffffffffffffffffffffffffffff1673ffffffffffffffffffffffffffffffffffffffff1681526020016002820160009054906101000a900473ffffffffffffffffffffffffffffffffffffffff1673ffffffffffffffffffffffffffffffffffffffff1673ffffffffffffffffffffffffffffffffffffffff168152602001600382015481526020016004820160009054906101000a900460ff1615151515815250508486815181106111a1577f4e487b7100000000000000000000000000000000000000000000000000000000600052603260045260246000fd5b60200260200101819052506001856111b991906143d0565b945050505b80806111c990614585565b915050610fdb565b508094505050505090565b6111ed6111e7612267565b82612336565b61122c576040517f08c379a000000000000000000000000000000000000000000000000000000000815260040161122390614032565b60405180910390fd5b6112378383836123cb565b505050565b60008073ffffffffffffffffffffffffffffffffffffffff16600c60008473ffffffffffffffffffffffffffffffffffffffff1673ffffffffffffffffffffffffffffffffffffffff16815260200190815260200160002060000160009054906101000a900473ffffffffffffffffffffffffffffffffffffffff1673ffffffffffffffffffffffffffffffffffffffff1614159050919050565b6112f283838360405180602001604052806000815250611aa0565b505050565b606060006113056007612328565b905060008060005b838110156113ae573373ffffffffffffffffffffffffffffffffffffffff16600b600060018461133d91906143d0565b815260200190815260200160002060010160009054906101000a900473ffffffffffffffffffffffffffffffffffffffff1673ffffffffffffffffffffffffffffffffffffffff16141561139b5760018361139891906143d0565b92505b80806113a690614585565b91505061130d565b5060008267ffffffffffffffff8111156113f1577f4e487b7100000000000000000000000000000000000000000000000000000000600052604160045260246000fd5b60405190808252806020026020018201604052801561142a57816020015b6114176134d3565b81526020019060019003908161140f5790505b50905060005b84811015611626573373ffffffffffffffffffffffffffffffffffffffff16600b600060018461146091906143d0565b815260200190815260200160002060010160009054906101000a900473ffffffffffffffffffffffffffffffffffffffff1673ffffffffffffffffffffffffffffffffffffffff1614156116135760006001826114bd91906143d0565b90506000600b60008381526020019081526020016000209050806040518060a0016040529081600082015481526020016001820160009054906101000a900473ffffffffffffffffffffffffffffffffffffffff1673ffffffffffffffffffffffffffffffffffffffff1673ffffffffffffffffffffffffffffffffffffffff1681526020016002820160009054906101000a900473ffffffffffffffffffffffffffffffffffffffff1673ffffffffffffffffffffffffffffffffffffffff1673ffffffffffffffffffffffffffffffffffffffff168152602001600382015481526020016004820160009054906101000a900460ff1615151515815250508486815181106115f6577f4e487b7100000000000000000000000000000000000000000000000000000000600052603260045260246000fd5b602002602001018190525060018561160e91906143d0565b945050505b808061161e90614585565b915050611430565b508094505050505090565b60008061163d836126c5565b9050600073ffffffffffffffffffffffffffffffffffffffff168173ffffffffffffffffffffffffffffffffffffffff1614156116af576040517f08c379a00000000000000000000000000000000000000000000000000000000081526004016116a6906141d2565b60405180910390fd5b80915050919050565b60008073ffffffffffffffffffffffffffffffffffffffff168273ffffffffffffffffffffffffffffffffffffffff161415611729576040517f08c379a000000000000000000000000000000000000000000000000000000000815260040161172090614112565b60405180910390fd5b600360008373ffffffffffffffffffffffffffffffffffffffff1673ffffffffffffffffffffffffffffffffffffffff168152602001908152602001600020549050919050565b600061177c6007612702565b60006117886007612328565b90506117943382612718565b61179e8185612936565b6117a881846129aa565b8091505092915050565b6000600a60009054906101000a900473ffffffffffffffffffffffffffffffffffffffff16905090565b600a60009054906101000a900473ffffffffffffffffffffffffffffffffffffffff1681565b60606001805461181190614522565b80601f016020809104026020016040519081016040528092919081815260200182805461183d90614522565b801561188a5780601f1061185f5761010080835404028352916020019161188a565b820191906000526020600020905b81548152906001019060200180831161186d57829003601f168201915b5050505050905090565b600c6020528060005260406000206000915090508060000160009054906101000a900473ffffffffffffffffffffffffffffffffffffffff16908060010180546118dd90614522565b80601f016020809104026020016040519081016040528092919081815260200182805461190990614522565b80156119565780601f1061192b57610100808354040283529160200191611956565b820191906000526020600020905b81548152906001019060200180831161193957829003601f168201915b5050505050905082565b61197261196b612267565b8383612bad565b5050565b600a60009054906101000a900473ffffffffffffffffffffffffffffffffffffffff1673ffffffffffffffffffffffffffffffffffffffff163373ffffffffffffffffffffffffffffffffffffffff1614611a06576040517f08c379a00000000000000000000000000000000000000000000000000000000081526004016119fd906141b2565b60405180910390fd5b3373ffffffffffffffffffffffffffffffffffffffff16600a60009054906101000a900473ffffffffffffffffffffffffffffffffffffffff1673ffffffffffffffffffffffffffffffffffffffff1614611a96576040517f08c379a0000000000000000000000000000000000000000000000000000000008152600401611a8d90614272565b60405180910390fd5b8060098190555050565b611ab1611aab612267565b83612336565b611af0576040517f08c379a0000000000000000000000000000000000000000000000000000000008152600401611ae790614032565b60405180910390fd5b611afc84848484612d1a565b50505050565b6000600b6000838152602001908152602001600020600301549050803414611b5f576040517f08c379a0000000000000000000000000000000000000000000000000000000008152600401611b5690614152565b60405180910390fd5b33600b600084815260200190815260200160002060020160006101000a81548173ffffffffffffffffffffffffffffffffffffffff021916908373ffffffffffffffffffffffffffffffffffffffff1602179055506001600b600084815260200190815260200160002060040160006101000a81548160ff0219169083151502179055506000600b600084815260200190815260200160002060010160006101000a81548173ffffffffffffffffffffffffffffffffffffffff021916908373ffffffffffffffffffffffffffffffffffffffff160217905550611c436008612702565b611c4e3033846123cb565b600a60009054906101000a900473ffffffffffffffffffffffffffffffffffffffff1673ffffffffffffffffffffffffffffffffffffffff166108fc6009549081150290604051600060405180830381858888f19350505050158015611cb8573d6000803e3d6000fd5b50600b600083815260200190815260200160002060010160009054906101000a900473ffffffffffffffffffffffffffffffffffffffff1673ffffffffffffffffffffffffffffffffffffffff166108fc349081150290604051600060405180830381858888f19350505050158015611d35573d6000803e3d6000fd5b505050565b6060611d458261221c565b6000600660008481526020019081526020016000208054611d6590614522565b80601f0160208091040260200160405190810160405280929190818152602001828054611d9190614522565b8015611dde5780601f10611db357610100808354040283529160200191611dde565b820191906000526020600020905b815481529060010190602001808311611dc157829003601f168201915b505050505090506000611def612d76565b9050600081511415611e05578192505050611e48565b600082511115611e3a578082604051602001611e22929190613eb8565b60405160208183030381529060405292505050611e48565b611e4384612d8d565b925050505b919050565b600d8181548110611e5d57600080fd5b90600052602060002090600202016000915090508060000160009054906101000a900473ffffffffffffffffffffffffffffffffffffffff1690806001018054611ea690614522565b80601f0160208091040260200160405190810160405280929190818152602001828054611ed290614522565b8015611f1f5780601f10611ef457610100808354040283529160200191611f1f565b820191906000526020600020905b815481529060010190602001808311611f0257829003601f168201915b5050505050905082565b3373ffffffffffffffffffffffffffffffffffffffff16600b600084815260200190815260200160002060020160009054906101000a900473ffffffffffffffffffffffffffffffffffffffff1673ffffffffffffffffffffffffffffffffffffffff1614611fcd576040517f08c379a0000000000000000000000000000000000000000000000000000000008152600401611fc490614192565b60405180910390fd5b6009543414612011576040517f08c379a000000000000000000000000000000000000000000000000000000000815260040161200890614212565b60405180910390fd5b6000600b600084815260200190815260200160002060040160006101000a81548160ff02191690831515021790555080600b60008481526020019081526020016000206003018190555033600b600084815260200190815260200160002060010160006101000a81548173ffffffffffffffffffffffffffffffffffffffff021916908373ffffffffffffffffffffffffffffffffffffffff16021790555030600b600084815260200190815260200160002060020160006101000a81548173ffffffffffffffffffffffffffffffffffffffff021916908373ffffffffffffffffffffffffffffffffffffffff16021790555061210f6008612df5565b61211a3330846123cb565b5050565b6000600560008473ffffffffffffffffffffffffffffffffffffffff1673ffffffffffffffffffffffffffffffffffffffff16815260200190815260200160002060008373ffffffffffffffffffffffffffffffffffffffff1673ffffffffffffffffffffffffffffffffffffffff16815260200190815260200160002060009054906101000a900460ff16905092915050565b60007f01ffc9a7000000000000000000000000000000000000000000000000000000007bffffffffffffffffffffffffffffffffffffffffffffffffffffffff1916827bffffffffffffffffffffffffffffffffffffffffffffffffffffffff1916149050919050565b61222581612e51565b612264576040517f08c379a000000000000000000000000000000000000000000000000000000000815260040161225b906141d2565b60405180910390fd5b50565b600033905090565b816004600083815260200190815260200160002060006101000a81548173ffffffffffffffffffffffffffffffffffffffff021916908373ffffffffffffffffffffffffffffffffffffffff160217905550808273ffffffffffffffffffffffffffffffffffffffff166122e283611631565b73ffffffffffffffffffffffffffffffffffffffff167f8c5be1e5ebec7d5bd14f71427d1e84f3dd0314c0f7b2291e5b200ac8c7c3b92560405160405180910390a45050565b600081600001549050919050565b60008061234283611631565b90508073ffffffffffffffffffffffffffffffffffffffff168473ffffffffffffffffffffffffffffffffffffffff1614806123845750612383818561211e565b5b806123c257508373ffffffffffffffffffffffffffffffffffffffff166123aa8461080e565b73ffffffffffffffffffffffffffffffffffffffff16145b91505092915050565b8273ffffffffffffffffffffffffffffffffffffffff166123eb82611631565b73ffffffffffffffffffffffffffffffffffffffff1614612441576040517f08c379a000000000000000000000000000000000000000000000000000000000815260040161243890614092565b60405180910390fd5b600073ffffffffffffffffffffffffffffffffffffffff168273ffffffffffffffffffffffffffffffffffffffff1614156124b1576040517f08c379a00000000000000000000000000000000000000000000000000000000081526004016124a8906140d2565b60405180910390fd5b6124be8383836001612e92565b8273ffffffffffffffffffffffffffffffffffffffff166124de82611631565b73ffffffffffffffffffffffffffffffffffffffff1614612534576040517f08c379a000000000000000000000000000000000000000000000000000000000815260040161252b90614092565b60405180910390fd5b6004600082815260200190815260200160002060006101000a81549073ffffffffffffffffffffffffffffffffffffffff02191690556001600360008573ffffffffffffffffffffffffffffffffffffffff1673ffffffffffffffffffffffffffffffffffffffff168152602001908152602001600020600082825403925050819055506001600360008473ffffffffffffffffffffffffffffffffffffffff1673ffffffffffffffffffffffffffffffffffffffff16815260200190815260200160002060008282540192505081905550816002600083815260200190815260200160002060006101000a81548173ffffffffffffffffffffffffffffffffffffffff021916908373ffffffffffffffffffffffffffffffffffffffff160217905550808273ffffffffffffffffffffffffffffffffffffffff168473ffffffffffffffffffffffffffffffffffffffff167fddf252ad1be2c89b69c2b068fc378daa952ba7f163c4a11628f55a4df523b3ef60405160405180910390a46126c08383836001612fb8565b505050565b60006002600083815260200190815260200160002060009054906101000a900473ffffffffffffffffffffffffffffffffffffffff169050919050565b6001816000016000828254019250508190555050565b600073ffffffffffffffffffffffffffffffffffffffff168273ffffffffffffffffffffffffffffffffffffffff161415612788576040517f08c379a000000000000000000000000000000000000000000000000000000000815260040161277f90614172565b60405180910390fd5b61279181612e51565b156127d1576040517f08c379a00000000000000000000000000000000000000000000000000000000081526004016127c8906140b2565b60405180910390fd5b6127df600083836001612e92565b6127e881612e51565b15612828576040517f08c379a000000000000000000000000000000000000000000000000000000000815260040161281f906140b2565b60405180910390fd5b6001600360008473ffffffffffffffffffffffffffffffffffffffff1673ffffffffffffffffffffffffffffffffffffffff16815260200190815260200160002060008282540192505081905550816002600083815260200190815260200160002060006101000a81548173ffffffffffffffffffffffffffffffffffffffff021916908373ffffffffffffffffffffffffffffffffffffffff160217905550808273ffffffffffffffffffffffffffffffffffffffff16600073ffffffffffffffffffffffffffffffffffffffff167fddf252ad1be2c89b69c2b068fc378daa952ba7f163c4a11628f55a4df523b3ef60405160405180910390a4612932600083836001612fb8565b5050565b61293f82612e51565b61297e576040517f08c379a000000000000000000000000000000000000000000000000000000000815260040161297590614132565b60405180910390fd5b806006600084815260200190815260200160002090805190602001906129a5929190613530565b505050565b600081116129ed576040517f08c379a00000000000000000000000000000000000000000000000000000000081526004016129e490614292565b60405180910390fd5b6009543414612a31576040517f08c379a0000000000000000000000000000000000000000000000000000000008152600401612a2890614212565b60405180910390fd5b6040518060a001604052808381526020013373ffffffffffffffffffffffffffffffffffffffff1681526020013073ffffffffffffffffffffffffffffffffffffffff16815260200182815260200160001515815250600b60008481526020019081526020016000206000820151816000015560208201518160010160006101000a81548173ffffffffffffffffffffffffffffffffffffffff021916908373ffffffffffffffffffffffffffffffffffffffff16021790555060408201518160020160006101000a81548173ffffffffffffffffffffffffffffffffffffffff021916908373ffffffffffffffffffffffffffffffffffffffff1602179055506060820151816003015560808201518160040160006101000a81548160ff021916908315150217905550905050612b6a3330846123cb565b817fb640004f1d14576d0c209e240cad0410e0d8c0c33a09375861fbadae2588a98d3330846000604051612ba19493929190613f12565b60405180910390a25050565b8173ffffffffffffffffffffffffffffffffffffffff168373ffffffffffffffffffffffffffffffffffffffff161415612c1c576040517f08c379a0000000000000000000000000000000000000000000000000000000008152600401612c13906140f2565b60405180910390fd5b80600560008573ffffffffffffffffffffffffffffffffffffffff1673ffffffffffffffffffffffffffffffffffffffff16815260200190815260200160002060008473ffffffffffffffffffffffffffffffffffffffff1673ffffffffffffffffffffffffffffffffffffffff16815260200190815260200160002060006101000a81548160ff0219169083151502179055508173ffffffffffffffffffffffffffffffffffffffff168373ffffffffffffffffffffffffffffffffffffffff167f17307eab39ab6107e8899845ad3d59bd9653f200f220920489ca2b5937696c3183604051612d0d9190613ff5565b60405180910390a3505050565b612d258484846123cb565b612d3184848484612fbe565b612d70576040517f08c379a0000000000000000000000000000000000000000000000000000000008152600401612d6790614072565b60405180910390fd5b50505050565b606060405180602001604052806000815250905090565b6060612d988261221c565b6000612da2612d76565b90506000815111612dc25760405180602001604052806000815250612ded565b80612dcc84613155565b604051602001612ddd929190613eb8565b6040516020818303038152906040525b915050919050565b60008160000154905060008111612e41576040517f08c379a0000000000000000000000000000000000000000000000000000000008152600401612e3890614052565b60405180910390fd5b6001810382600001819055505050565b60008073ffffffffffffffffffffffffffffffffffffffff16612e73836126c5565b73ffffffffffffffffffffffffffffffffffffffff1614159050919050565b6001811115612fb257600073ffffffffffffffffffffffffffffffffffffffff168473ffffffffffffffffffffffffffffffffffffffff1614612f265780600360008673ffffffffffffffffffffffffffffffffffffffff1673ffffffffffffffffffffffffffffffffffffffff1681526020019081526020016000206000828254612f1e9190614426565b925050819055505b600073ffffffffffffffffffffffffffffffffffffffff168373ffffffffffffffffffffffffffffffffffffffff1614612fb15780600360008573ffffffffffffffffffffffffffffffffffffffff1673ffffffffffffffffffffffffffffffffffffffff1681526020019081526020016000206000828254612fa991906143d0565b925050819055505b5b50505050565b50505050565b6000612fdf8473ffffffffffffffffffffffffffffffffffffffff16613279565b15613148578373ffffffffffffffffffffffffffffffffffffffff1663150b7a02613008612267565b8786866040518563ffffffff1660e01b815260040161302a9493929190613f57565b602060405180830381600087803b15801561304457600080fd5b505af192505050801561307557506040513d601f19601f820116820180604052508101906130729190613930565b60015b6130f8573d80600081146130a5576040519150601f19603f3d011682016040523d82523d6000602084013e6130aa565b606091505b506000815114156130f0576040517f08c379a00000000000000000000000000000000000000000000000000000000081526004016130e790614072565b60405180910390fd5b805181602001fd5b63150b7a0260e01b7bffffffffffffffffffffffffffffffffffffffffffffffffffffffff1916817bffffffffffffffffffffffffffffffffffffffffffffffffffffffff19161491505061314d565b600190505b949350505050565b6060600060016131648461329c565b01905060008167ffffffffffffffff8111156131a9577f4e487b7100000000000000000000000000000000000000000000000000000000600052604160045260246000fd5b6040519080825280601f01601f1916602001820160405280156131db5781602001600182028036833780820191505090505b509050600082602001820190505b60011561326e578080600190039150507f3031323334353637383961626364656600000000000000000000000000000000600a86061a8153600a8581613258577f4e487b7100000000000000000000000000000000000000000000000000000000600052601260045260246000fd5b04945060008514156132695761326e565b6131e9565b819350505050919050565b6000808273ffffffffffffffffffffffffffffffffffffffff163b119050919050565b600080600090507a184f03e93ff9f4daa797ed6e38ed64bf6a1f0100000000000000008310613320577a184f03e93ff9f4daa797ed6e38ed64bf6a1f0100000000000000008381613316577f4e487b7100000000000000000000000000000000000000000000000000000000600052601260045260246000fd5b0492506040810190505b6d04ee2d6d415b85acef81000000008310613383576d04ee2d6d415b85acef81000000008381613379577f4e487b7100000000000000000000000000000000000000000000000000000000600052601260045260246000fd5b0492506020810190505b662386f26fc1000083106133d857662386f26fc1000083816133ce577f4e487b7100000000000000000000000000000000000000000000000000000000600052601260045260246000fd5b0492506010810190505b6305f5e1008310613427576305f5e100838161341d577f4e487b7100000000000000000000000000000000000000000000000000000000600052601260045260246000fd5b0492506008810190505b6127108310613472576127108381613468577f4e487b7100000000000000000000000000000000000000000000000000000000600052601260045260246000fd5b0492506004810190505b606483106134bb57606483816134b1577f4e487b7100000000000000000000000000000000000000000000000000000000600052601260045260246000fd5b0492506002810190505b600a83106134ca576001810190505b80915050919050565b6040518060a0016040528060008152602001600073ffffffffffffffffffffffffffffffffffffffff168152602001600073ffffffffffffffffffffffffffffffffffffffff168152602001600081526020016000151581525090565b82805461353c90614522565b90600052602060002090601f01602090048101928261355e57600085556135a5565b82601f1061357757805160ff19168380011785556135a5565b828001600101855582156135a5579182015b828111156135a4578251825591602001919060010190613589565b5b5090506135b291906135b6565b5090565b5b808211156135cf5760008160009055506001016135b7565b5090565b60006135e66135e1846142f2565b6142cd565b9050828152602081018484840111156135fe57600080fd5b6136098482856144e0565b509392505050565b600061362461361f84614323565b6142cd565b90508281526020810184848401111561363c57600080fd5b6136478482856144e0565b509392505050565b60008135905061365e81614bb4565b92915050565b60008135905061367381614bcb565b92915050565b60008135905061368881614be2565b92915050565b60008151905061369d81614be2565b92915050565b600082601f8301126136b457600080fd5b81356136c48482602086016135d3565b91505092915050565b600082601f8301126136de57600080fd5b81356136ee848260208601613611565b91505092915050565b60008135905061370681614bf9565b92915050565b60006020828403121561371e57600080fd5b600061372c8482850161364f565b91505092915050565b6000806040838503121561374857600080fd5b60006137568582860161364f565b92505060206137678582860161364f565b9150509250929050565b60008060006060848603121561378657600080fd5b60006137948682870161364f565b93505060206137a58682870161364f565b92505060406137b6868287016136f7565b9150509250925092565b600080600080608085870312156137d657600080fd5b60006137e48782880161364f565b94505060206137f58782880161364f565b9350506040613806878288016136f7565b925050606085013567ffffffffffffffff81111561382357600080fd5b61382f878288016136a3565b91505092959194509250565b6000806040838503121561384e57600080fd5b600061385c8582860161364f565b925050602061386d85828601613664565b9150509250929050565b6000806040838503121561388a57600080fd5b60006138988582860161364f565b925050602083013567ffffffffffffffff8111156138b557600080fd5b6138c1858286016136cd565b9150509250929050565b600080604083850312156138de57600080fd5b60006138ec8582860161364f565b92505060206138fd858286016136f7565b9150509250929050565b60006020828403121561391957600080fd5b600061392784828501613679565b91505092915050565b60006020828403121561394257600080fd5b60006139508482850161368e565b91505092915050565b6000806040838503121561396c57600080fd5b600083013567ffffffffffffffff81111561398657600080fd5b613992858286016136cd565b92505060206139a3858286016136f7565b9150509250929050565b6000602082840312156139bf57600080fd5b60006139cd848285016136f7565b91505092915050565b600080604083850312156139e957600080fd5b60006139f7858286016136f7565b9250506020613a08858286016136f7565b9150509250929050565b6000613a1e8383613e32565b60a08301905092915050565b613a338161446c565b82525050565b613a428161446c565b82525050565b613a518161445a565b82525050565b6000613a6282614364565b613a6c8185614392565b9350613a7783614354565b8060005b83811015613aa8578151613a8f8882613a12565b9750613a9a83614385565b925050600181019050613a7b565b5085935050505092915050565b613abe8161447e565b82525050565b613acd8161447e565b82525050565b6000613ade8261436f565b613ae881856143a3565b9350613af88185602086016144ef565b613b018161465b565b840191505092915050565b6000613b178261437a565b613b2181856143b4565b9350613b318185602086016144ef565b613b3a8161465b565b840191505092915050565b6000613b508261437a565b613b5a81856143c5565b9350613b6a8185602086016144ef565b80840191505092915050565b6000613b83602d836143b4565b9150613b8e8261466c565b604082019050919050565b6000613ba6601b836143b4565b9150613bb1826146bb565b602082019050919050565b6000613bc96032836143b4565b9150613bd4826146e4565b604082019050919050565b6000613bec6025836143b4565b9150613bf782614733565b604082019050919050565b6000613c0f601c836143b4565b9150613c1a82614782565b602082019050919050565b6000613c326024836143b4565b9150613c3d826147ab565b604082019050919050565b6000613c556019836143b4565b9150613c60826147fa565b602082019050919050565b6000613c786029836143b4565b9150613c8382614823565b604082019050919050565b6000613c9b602e836143b4565b9150613ca682614872565b604082019050919050565b6000613cbe6040836143b4565b9150613cc9826148c1565b604082019050919050565b6000613ce16020836143b4565b9150613cec82614910565b602082019050919050565b6000613d04602a836143b4565b9150613d0f82614939565b604082019050919050565b6000613d27603a836143b4565b9150613d3282614988565b604082019050919050565b6000613d4a6018836143b4565b9150613d55826149d7565b602082019050919050565b6000613d6d6021836143b4565b9150613d7882614a00565b604082019050919050565b6000613d906024836143b4565b9150613d9b82614a4f565b604082019050919050565b6000613db3603d836143b4565b9150613dbe82614a9e565b604082019050919050565b6000613dd66024836143b4565b9150613de182614aed565b604082019050919050565b6000613df96030836143b4565b9150613e0482614b3c565b604082019050919050565b6000613e1c601c836143b4565b9150613e2782614b8b565b602082019050919050565b60a082016000820151613e486000850182613e9a565b506020820151613e5b6020850182613a2a565b506040820151613e6e6040850182613a2a565b506060820151613e816060850182613e9a565b506080820151613e946080850182613ab5565b50505050565b613ea3816144d6565b82525050565b613eb2816144d6565b82525050565b6000613ec48285613b45565b9150613ed08284613b45565b91508190509392505050565b6000602082019050613ef16000830184613a48565b92915050565b6000602082019050613f0c6000830184613a39565b92915050565b6000608082019050613f276000830187613a48565b613f346020830186613a48565b613f416040830185613ea9565b613f4e6060830184613ac4565b95945050505050565b6000608082019050613f6c6000830187613a48565b613f796020830186613a48565b613f866040830185613ea9565b8181036060830152613f988184613ad3565b905095945050505050565b6000604082019050613fb86000830185613a48565b8181036020830152613fca8184613b0c565b90509392505050565b60006020820190508181036000830152613fed8184613a57565b905092915050565b600060208201905061400a6000830184613ac4565b92915050565b6000602082019050818103600083015261402a8184613b0c565b905092915050565b6000602082019050818103600083015261404b81613b76565b9050919050565b6000602082019050818103600083015261406b81613b99565b9050919050565b6000602082019050818103600083015261408b81613bbc565b9050919050565b600060208201905081810360008301526140ab81613bdf565b9050919050565b600060208201905081810360008301526140cb81613c02565b9050919050565b600060208201905081810360008301526140eb81613c25565b9050919050565b6000602082019050818103600083015261410b81613c48565b9050919050565b6000602082019050818103600083015261412b81613c6b565b9050919050565b6000602082019050818103600083015261414b81613c8e565b9050919050565b6000602082019050818103600083015261416b81613cb1565b9050919050565b6000602082019050818103600083015261418b81613cd4565b9050919050565b600060208201905081810360008301526141ab81613cf7565b9050919050565b600060208201905081810360008301526141cb81613d1a565b9050919050565b600060208201905081810360008301526141eb81613d3d565b9050919050565b6000602082019050818103600083015261420b81613d60565b9050919050565b6000602082019050818103600083015261422b81613d83565b9050919050565b6000602082019050818103600083015261424b81613da6565b9050919050565b6000602082019050818103600083015261426b81613dc9565b9050919050565b6000602082019050818103600083015261428b81613dec565b9050919050565b600060208201905081810360008301526142ab81613e0f565b9050919050565b60006020820190506142c76000830184613ea9565b92915050565b60006142d76142e8565b90506142e38282614554565b919050565b6000604051905090565b600067ffffffffffffffff82111561430d5761430c61462c565b5b6143168261465b565b9050602081019050919050565b600067ffffffffffffffff82111561433e5761433d61462c565b5b6143478261465b565b9050602081019050919050565b6000819050602082019050919050565b600081519050919050565b600081519050919050565b600081519050919050565b6000602082019050919050565b600082825260208201905092915050565b600082825260208201905092915050565b600082825260208201905092915050565b600081905092915050565b60006143db826144d6565b91506143e6836144d6565b9250827fffffffffffffffffffffffffffffffffffffffffffffffffffffffffffffffff0382111561441b5761441a6145ce565b5b828201905092915050565b6000614431826144d6565b915061443c836144d6565b92508282101561444f5761444e6145ce565b5b828203905092915050565b6000614465826144b6565b9050919050565b6000614477826144b6565b9050919050565b60008115159050919050565b60007fffffffff0000000000000000000000000000000000000000000000000000000082169050919050565b600073ffffffffffffffffffffffffffffffffffffffff82169050919050565b6000819050919050565b82818337600083830152505050565b60005b8381101561450d5780820151818401526020810190506144f2565b8381111561451c576000848401525b50505050565b6000600282049050600182168061453a57607f821691505b6020821081141561454e5761454d6145fd565b5b50919050565b61455d8261465b565b810181811067ffffffffffffffff8211171561457c5761457b61462c565b5b80604052505050565b6000614590826144d6565b91507fffffffffffffffffffffffffffffffffffffffffffffffffffffffffffffffff8214156145c3576145c26145ce565b5b600182019050919050565b7f4e487b7100000000000000000000000000000000000000000000000000000000600052601160045260246000fd5b7f4e487b7100000000000000000000000000000000000000000000000000000000600052602260045260246000fd5b7f4e487b7100000000000000000000000000000000000000000000000000000000600052604160045260246000fd5b6000601f19601f8301169050919050565b7f4552433732313a2063616c6c6572206973206e6f7420746f6b656e206f776e6560008201527f72206f7220617070726f76656400000000000000000000000000000000000000602082015250565b7f436f756e7465723a2064656372656d656e74206f766572666c6f770000000000600082015250565b7f4552433732313a207472616e7366657220746f206e6f6e20455243373231526560008201527f63656976657220696d706c656d656e7465720000000000000000000000000000602082015250565b7f4552433732313a207472616e736665722066726f6d20696e636f72726563742060008201527f6f776e6572000000000000000000000000000000000000000000000000000000602082015250565b7f4552433732313a20746f6b656e20616c7265616479206d696e74656400000000600082015250565b7f4552433732313a207472616e7366657220746f20746865207a65726f2061646460008201527f7265737300000000000000000000000000000000000000000000000000000000602082015250565b7f4552433732313a20617070726f766520746f2063616c6c657200000000000000600082015250565b7f4552433732313a2061646472657373207a65726f206973206e6f74206120766160008201527f6c6964206f776e65720000000000000000000000000000000000000000000000602082015250565b7f45524337323155524953746f726167653a2055524920736574206f66206e6f6e60008201527f6578697374656e7420746f6b656e000000000000000000000000000000000000602082015250565b7f506c65617365207375626d6974207468652061736b696e67207072696365206960008201527f6e206f7264657220746f20636f6d706c65746520746865207075726368617365602082015250565b7f4552433732313a206d696e7420746f20746865207a65726f2061646472657373600082015250565b7f4f6e6c79206974656d206f776e65722063616e20706572666f726d207468697360008201527f206f7065726174696f6e00000000000000000000000000000000000000000000602082015250565b7f6f6e6c79206f776e6572206f6620746865206d61726b6574706c61636520636160008201527f6e206368616e676520746865206c697374696e67207072696365000000000000602082015250565b7f4552433732313a20696e76616c696420746f6b656e2049440000000000000000600082015250565b7f4552433732313a20617070726f76616c20746f2063757272656e74206f776e6560008201527f7200000000000000000000000000000000000000000000000000000000000000602082015250565b7f5072696365206d75737420626520657175616c20746f206c697374696e67207060008201527f7269636500000000000000000000000000000000000000000000000000000000602082015250565b7f4552433732313a20617070726f76652063616c6c6572206973206e6f7420746f60008201527f6b656e206f776e6572206f7220617070726f76656420666f7220616c6c000000602082015250565b7f4164647265737320697320616c7265616479206f6e207468652077686974656c60008201527f6973742e00000000000000000000000000000000000000000000000000000000602082015250565b7f4f6e6c79206d61726b6574706c616365206f776e65722063616e20757064617460008201527f65206c697374696e672070726963652e00000000000000000000000000000000602082015250565b7f5072696365206d757374206265206174206c6561737420312077656900000000600082015250565b614bbd8161445a565b8114614bc857600080fd5b50565b614bd48161447e565b8114614bdf57600080fd5b50565b614beb8161448a565b8114614bf657600080fd5b50565b614c02816144d6565b8114614c0d57600080fd5b5056fea264697066735822122028446c8a28e75704e60e9225225d96010e0d113cb147b8e9f6d925633f25988c64736f6c63430008040033",
  "linkReferences": {},
  "deployedLinkReferences": {}
}