{
  "_format": "hh-sol-artifact-1",
  "contractName": "NFTMarketplace",
  "sourceName": "contracts/NFTMarketplace.sol",
  "abi": [
    {
      "inputs": [],
      "stateMutability": "nonpayable",
      "type": "constructor"
    },
    {
      "anonymous": false,
      "inputs": [
        {
          "indexed": true,
          "internalType": "address",
          "name": "owner",
          "type": "address"
        },
        {
          "indexed": true,
          "internalType": "address",
          "name": "approved",
          "type": "address"
        },
        {
          "indexed": true,
          "internalType": "uint256",
          "name": "tokenId",
          "type": "uint256"
        }
      ],
      "name": "Approval",
      "type": "event"
    },
    {
      "anonymous": false,
      "inputs": [
        {
          "indexed": true,
          "internalType": "address",
          "name": "owner",
          "type": "address"
        },
        {
          "indexed": true,
          "internalType": "address",
          "name": "operator",
          "type": "address"
        },
        {
          "indexed": false,
          "internalType": "bool",
          "name": "approved",
          "type": "bool"
        }
      ],
      "name": "ApprovalForAll",
      "type": "event"
    },
    {
      "anonymous": false,
      "inputs": [
        {
          "indexed": true,
          "internalType": "uint256",
          "name": "tokenId",
          "type": "uint256"
        },
        {
          "indexed": false,
          "internalType": "address",
          "name": "seller",
          "type": "address"
        },
        {
          "indexed": false,
          "internalType": "address",
          "name": "owner",
          "type": "address"
        },
        {
          "indexed": false,
          "internalType": "uint256",
          "name": "price",
          "type": "uint256"
        },
        {
          "indexed": false,
          "internalType": "bool",
          "name": "sold",
          "type": "bool"
        }
      ],
      "name": "MarketItemCreated",
      "type": "event"
    },
    {
      "anonymous": false,
      "inputs": [
        {
          "indexed": true,
          "internalType": "address",
          "name": "from",
          "type": "address"
        },
        {
          "indexed": true,
          "internalType": "address",
          "name": "to",
          "type": "address"
        },
        {
          "indexed": true,
          "internalType": "uint256",
          "name": "tokenId",
          "type": "uint256"
        }
      ],
      "name": "Transfer",
      "type": "event"
    },
    {
      "anonymous": false,
      "inputs": [
        {
          "indexed": false,
          "internalType": "address",
          "name": "account",
          "type": "address"
        },
        {
          "indexed": false,
          "internalType": "string",
          "name": "name",
          "type": "string"
        }
      ],
      "name": "WhitelistAdded",
      "type": "event"
    },
    {
      "inputs": [
        {
          "internalType": "address",
          "name": "account",
          "type": "address"
        },
        {
          "internalType": "string",
          "name": "name",
          "type": "string"
        }
      ],
      "name": "addToWhitelist",
      "outputs": [],
      "stateMutability": "nonpayable",
      "type": "function"
    },
    {
      "inputs": [
        {
          "internalType": "address",
          "name": "to",
          "type": "address"
        },
        {
          "internalType": "uint256",
          "name": "tokenId",
          "type": "uint256"
        }
      ],
      "name": "approve",
      "outputs": [],
      "stateMutability": "nonpayable",
      "type": "function"
    },
    {
      "inputs": [
        {
          "internalType": "address",
          "name": "owner",
          "type": "address"
        }
      ],
      "name": "balanceOf",
      "outputs": [
        {
          "internalType": "uint256",
          "name": "",
          "type": "uint256"
        }
      ],
      "stateMutability": "view",
      "type": "function"
    },
    {
      "inputs": [
        {
          "internalType": "uint256",
          "name": "tokenId",
          "type": "uint256"
        }
      ],
      "name": "createMarketSale",
      "outputs": [],
      "stateMutability": "payable",
      "type": "function"
    },
    {
      "inputs": [
        {
          "internalType": "string",
          "name": "tokenURI",
          "type": "string"
        },
        {
          "internalType": "uint256",
          "name": "price",
          "type": "uint256"
        }
      ],
      "name": "createToken",
      "outputs": [
        {
          "internalType": "uint256",
          "name": "",
          "type": "uint256"
        }
      ],
      "stateMutability": "payable",
      "type": "function"
    },
    {
      "inputs": [],
      "name": "fetchItemsListed",
      "outputs": [
        {
          "components": [
            {
              "internalType": "uint256",
              "name": "tokenId",
              "type": "uint256"
            },
            {
              "internalType": "address payable",
              "name": "seller",
              "type": "address"
            },
            {
              "internalType": "address payable",
              "name": "owner",
              "type": "address"
            },
            {
              "internalType": "uint256",
              "name": "price",
              "type": "uint256"
            },
            {
              "internalType": "bool",
              "name": "sold",
              "type": "bool"
            }
          ],
          "internalType": "struct NFTMarketplace.MarketItem[]",
          "name": "",
          "type": "tuple[]"
        }
      ],
      "stateMutability": "view",
      "type": "function"
    },
    {
      "inputs": [],
      "name": "fetchMarketItems",
      "outputs": [
        {
          "components": [
            {
              "internalType": "uint256",
              "name": "tokenId",
              "type": "uint256"
            },
            {
              "internalType": "address payable",
              "name": "seller",
              "type": "address"
            },
            {
              "internalType": "address payable",
              "name": "owner",
              "type": "address"
            },
            {
              "internalType": "uint256",
              "name": "price",
              "type": "uint256"
            },
            {
              "internalType": "bool",
              "name": "sold",
              "type": "bool"
            }
          ],
          "internalType": "struct NFTMarketplace.MarketItem[]",
          "name": "",
          "type": "tuple[]"
        }
      ],
      "stateMutability": "view",
      "type": "function"
    },
    {
      "inputs": [],
      "name": "fetchMyNFTs",
      "outputs": [
        {
          "components": [
            {
              "internalType": "uint256",
              "name": "tokenId",
              "type": "uint256"
            },
            {
              "internalType": "address payable",
              "name": "seller",
              "type": "address"
            },
            {
              "internalType": "address payable",
              "name": "owner",
              "type": "address"
            },
            {
              "internalType": "uint256",
              "name": "price",
              "type": "uint256"
            },
            {
              "internalType": "bool",
              "name": "sold",
              "type": "bool"
            }
          ],
          "internalType": "struct NFTMarketplace.MarketItem[]",
          "name": "",
          "type": "tuple[]"
        }
      ],
      "stateMutability": "view",
      "type": "function"
    },
    {
      "inputs": [
        {
          "internalType": "uint256",
          "name": "tokenId",
          "type": "uint256"
        }
      ],
      "name": "getApproved",
      "outputs": [
        {
          "internalType": "address",
          "name": "",
          "type": "address"
        }
      ],
      "stateMutability": "view",
      "type": "function"
    },
    {
      "inputs": [],
      "name": "getListingPrice",
      "outputs": [
        {
          "internalType": "uint256",
          "name": "",
          "type": "uint256"
        }
      ],
      "stateMutability": "view",
      "type": "function"
    },
    {
      "inputs": [
        {
          "internalType": "address",
          "name": "owner",
          "type": "address"
        },
        {
          "internalType": "address",
          "name": "operator",
          "type": "address"
        }
      ],
      "name": "isApprovedForAll",
      "outputs": [
        {
          "internalType": "bool",
          "name": "",
          "type": "bool"
        }
      ],
      "stateMutability": "view",
      "type": "function"
    },
    {
      "inputs": [
        {
          "internalType": "address",
          "name": "account",
          "type": "address"
        }
      ],
      "name": "isWhitelisted",
      "outputs": [
        {
          "internalType": "bool",
          "name": "",
          "type": "bool"
        }
      ],
      "stateMutability": "view",
      "type": "function"
    },
    {
      "inputs": [],
      "name": "name",
      "outputs": [
        {
          "internalType": "string",
          "name": "",
          "type": "string"
        }
      ],
      "stateMutability": "view",
      "type": "function"
    },
    {
      "inputs": [],
      "name": "owner",
      "outputs": [
        {
          "internalType": "address payable",
          "name": "",
          "type": "address"
        }
      ],
      "stateMutability": "view",
      "type": "function"
    },
    {
      "inputs": [
        {
          "internalType": "uint256",
          "name": "tokenId",
          "type": "uint256"
        }
      ],
      "name": "ownerOf",
      "outputs": [
        {
          "internalType": "address",
          "name": "",
          "type": "address"
        }
      ],
      "stateMutability": "view",
      "type": "function"
    },
    {
      "inputs": [
        {
          "internalType": "uint256",
          "name": "tokenId",
          "type": "uint256"
        },
        {
          "internalType": "uint256",
          "name": "price",
          "type": "uint256"
        }
      ],
      "name": "resellToken",
      "outputs": [],
      "stateMutability": "payable",
      "type": "function"
    },
    {
      "inputs": [
        {
          "internalType": "address",
          "name": "from",
          "type": "address"
        },
        {
          "internalType": "address",
          "name": "to",
          "type": "address"
        },
        {
          "internalType": "uint256",
          "name": "tokenId",
          "type": "uint256"
        }
      ],
      "name": "safeTransferFrom",
      "outputs": [],
      "stateMutability": "nonpayable",
      "type": "function"
    },
    {
      "inputs": [
        {
          "internalType": "address",
          "name": "from",
          "type": "address"
        },
        {
          "internalType": "address",
          "name": "to",
          "type": "address"
        },
        {
          "internalType": "uint256",
          "name": "tokenId",
          "type": "uint256"
        },
        {
          "internalType": "bytes",
          "name": "data",
          "type": "bytes"
        }
      ],
      "name": "safeTransferFrom",
      "outputs": [],
      "stateMutability": "nonpayable",
      "type": "function"
    },
    {
      "inputs": [
        {
          "internalType": "address",
          "name": "operator",
          "type": "address"
        },
        {
          "internalType": "bool",
          "name": "approved",
          "type": "bool"
        }
      ],
      "name": "setApprovalForAll",
      "outputs": [],
      "stateMutability": "nonpayable",
      "type": "function"
    },
    {
      "inputs": [
        {
          "internalType": "bytes4",
          "name": "interfaceId",
          "type": "bytes4"
        }
      ],
      "name": "supportsInterface",
      "outputs": [
        {
          "internalType": "bool",
          "name": "",
          "type": "bool"
        }
      ],
      "stateMutability": "view",
      "type": "function"
    },
    {
      "inputs": [],
      "name": "symbol",
      "outputs": [
        {
          "internalType": "string",
          "name": "",
          "type": "string"
        }
      ],
      "stateMutability": "view",
      "type": "function"
    },
    {
      "inputs": [
        {
          "internalType": "uint256",
          "name": "tokenId",
          "type": "uint256"
        }
      ],
      "name": "tokenURI",
      "outputs": [
        {
          "internalType": "string",
          "name": "",
          "type": "string"
        }
      ],
      "stateMutability": "view",
      "type": "function"
    },
    {
      "inputs": [
        {
          "internalType": "address",
          "name": "from",
          "type": "address"
        },
        {
          "internalType": "address",
          "name": "to",
          "type": "address"
        },
        {
          "internalType": "uint256",
          "name": "tokenId",
          "type": "uint256"
        }
      ],
      "name": "transferFrom",
      "outputs": [],
      "stateMutability": "nonpayable",
      "type": "function"
    },
    {
      "inputs": [
        {
          "internalType": "uint256",
          "name": "_listingPrice",
          "type": "uint256"
        }
      ],
      "name": "updateListingPrice",
      "outputs": [],
      "stateMutability": "payable",
      "type": "function"
    },
    {
      "inputs": [
        {
          "internalType": "address",
          "name": "",
          "type": "address"
        }
      ],
      "name": "whitelist",
      "outputs": [
        {
          "internalType": "address",
          "name": "account",
          "type": "address"
        },
        {
          "internalType": "string",
          "name": "name",
          "type": "string"
        }
      ],
      "stateMutability": "view",
      "type": "function"
    },
    {
      "inputs": [
        {
          "internalType": "uint256",
          "name": "",
          "type": "uint256"
        }
      ],
      "name": "whitelistArray",
      "outputs": [
        {
          "internalType": "address",
          "name": "account",
          "type": "address"
        },
        {
          "internalType": "string",
          "name": "name",
          "type": "string"
        }
      ],
      "stateMutability": "view",
      "type": "function"
    }
  ],
  "bytecode": "0x60806040526658d15e176280006009553480156200001c57600080fd5b506040518060400160405280600981526020017f4e465420546f6b656e00000000000000000000000000000000000000000000008152506040518060400160405280600681526020017f5355204e465400000000000000000000000000000000000000000000000000008152508160009080519060200190620000a1929190620003cb565b508060019080519060200190620000ba929190620003cb565b50505033600a60006101000a81548173ffffffffffffffffffffffffffffffffffffffff021916908373ffffffffffffffffffffffffffffffffffffffff16021790555062000145336040518060400160405280601181526020017f636f6e74726163744f776e6572556775720000000000000000000000000000008152506200014b60201b60201c565b62000695565b600073ffffffffffffffffffffffffffffffffffffffff16600c60008473ffffffffffffffffffffffffffffffffffffffff1673ffffffffffffffffffffffffffffffffffffffff16815260200190815260200160002060000160009054906101000a900473ffffffffffffffffffffffffffffffffffffffff1673ffffffffffffffffffffffffffffffffffffffff16146200021f576040517f08c379a0000000000000000000000000000000000000000000000000000000008152600401620002169062000528565b60405180910390fd5b600060405180604001604052808473ffffffffffffffffffffffffffffffffffffffff16815260200183815250905080600c60008573ffffffffffffffffffffffffffffffffffffffff1673ffffffffffffffffffffffffffffffffffffffff16815260200190815260200160002060008201518160000160006101000a81548173ffffffffffffffffffffffffffffffffffffffff021916908373ffffffffffffffffffffffffffffffffffffffff1602179055506020820151816001019080519060200190620002f3929190620003cb565b50905050600d81908060018154018082558091505060019003906000526020600020906002020160009091909190915060008201518160000160006101000a81548173ffffffffffffffffffffffffffffffffffffffff021916908373ffffffffffffffffffffffffffffffffffffffff160217905550602082015181600101908051906020019062000388929190620003cb565b5050507fc099bb576ab769941d5df2a2e3a78102b73a991c8995d492f8ff2b716fe755348383604051620003be929190620004f4565b60405180910390a1505050565b828054620003d990620005d0565b90600052602060002090601f016020900481019282620003fd576000855562000449565b82601f106200041857805160ff191683800117855562000449565b8280016001018555821562000449579182015b82811115620004485782518255916020019190600101906200042b565b5b5090506200045891906200045c565b5090565b5b80821115620004775760008160009055506001016200045d565b5090565b620004868162000566565b82525050565b600062000499826200054a565b620004a5818562000555565b9350620004b78185602086016200059a565b620004c28162000635565b840191505092915050565b6000620004dc60248362000555565b9150620004e98262000646565b604082019050919050565b60006040820190506200050b60008301856200047b565b81810360208301526200051f81846200048c565b90509392505050565b600060208201905081810360008301526200054381620004cd565b9050919050565b600081519050919050565b600082825260208201905092915050565b600062000573826200057a565b9050919050565b600073ffffffffffffffffffffffffffffffffffffffff82169050919050565b60005b83811015620005ba5780820151818401526020810190506200059d565b83811115620005ca576000848401525b50505050565b60006002820490506001821680620005e957607f821691505b602082108114156200060057620005ff62000606565b5b50919050565b7f4e487b7100000000000000000000000000000000000000000000000000000000600052602260045260246000fd5b6000601f19601f8301169050919050565b7f4164647265737320697320616c7265616479206f6e207468652077686974656c60008201527f6973742e00000000000000000000000000000000000000000000000000000000602082015250565b614bd680620006a56000396000f3fe6080604052600436106101815760003560e01c806370a08231116100d1578063ae677aa31161008a578063c87b56dd11610064578063c87b56dd14610580578063d251fefc146105bd578063e219fc75146105fb578063e985e9c51461061757610181565b8063ae677aa31461051f578063b88d4fde1461053b578063be9af5361461056457610181565b806370a08231146103f557806372b3b620146104325780638da5cb5b1461046257806395d89b411461048d5780639b19251a146104b8578063a22cb465146104f657610181565b80631a533daa1161013e5780633af32abf116101185780633af32abf1461032757806342842e0e1461036457806345f8fa801461038d5780636352211e146103b857610181565b80631a533daa146102aa578063202e3740146102d357806323b872dd146102fe57610181565b806301ffc9a71461018657806306fdde03146101c3578063081812fc146101ee578063095ea7b31461022b5780630f08efe01461025457806312e855851461027f575b600080fd5b34801561019257600080fd5b506101ad60048036038101906101a89190613897565b610654565b6040516101ba9190613f85565b60405180910390f35b3480156101cf57600080fd5b506101d8610736565b6040516101e59190613fa0565b60405180910390f35b3480156101fa57600080fd5b506102156004803603810190610210919061393d565b6107c8565b6040516102229190613e6c565b60405180910390f35b34801561023757600080fd5b50610252600480360381019061024d919061385b565b61080e565b005b34801561026057600080fd5b50610269610926565b6040516102769190613f63565b60405180910390f35b34801561028b57600080fd5b50610294610bdb565b6040516102a19190614242565b60405180910390f35b3480156102b657600080fd5b506102d160048036038101906102cc9190613807565b610be5565b005b3480156102df57600080fd5b506102e8610e5c565b6040516102f59190613f63565b60405180910390f35b34801561030a57600080fd5b5061032560048036038101906103209190613701565b611196565b005b34801561033357600080fd5b5061034e6004803603810190610349919061369c565b6111f6565b60405161035b9190613f85565b60405180910390f35b34801561037057600080fd5b5061038b60048036038101906103869190613701565b611291565b005b34801561039957600080fd5b506103a26112b1565b6040516103af9190613f63565b60405180910390f35b3480156103c457600080fd5b506103df60048036038101906103da919061393d565b6115eb565b6040516103ec9190613e6c565b60405180910390f35b34801561040157600080fd5b5061041c6004803603810190610417919061369c565b611672565b6040516104299190614242565b60405180910390f35b61044c600480360381019061044791906138e9565b61172a565b6040516104599190614242565b60405180910390f35b34801561046e57600080fd5b5061047761176c565b6040516104849190613e87565b60405180910390f35b34801561049957600080fd5b506104a2611792565b6040516104af9190613fa0565b60405180910390f35b3480156104c457600080fd5b506104df60048036038101906104da919061369c565b611824565b6040516104ed929190613f33565b60405180910390f35b34801561050257600080fd5b5061051d600480360381019061051891906137cb565b6118f0565b005b6105396004803603810190610534919061393d565b611906565b005b34801561054757600080fd5b50610562600480360381019061055d9190613750565b611a30565b005b61057e6004803603810190610579919061393d565b611a92565b005b34801561058c57600080fd5b506105a760048036038101906105a2919061393d565b611cca565b6040516105b49190613fa0565b60405180910390f35b3480156105c957600080fd5b506105e460048036038101906105df919061393d565b611ddd565b6040516105f2929190613f33565b60405180910390f35b61061560048036038101906106109190613966565b611eb9565b005b34801561062357600080fd5b5061063e600480360381019061063991906136c5565b6120ae565b60405161064b9190613f85565b60405180910390f35b60007f80ac58cd000000000000000000000000000000000000000000000000000000007bffffffffffffffffffffffffffffffffffffffffffffffffffffffff1916827bffffffffffffffffffffffffffffffffffffffffffffffffffffffff1916148061071f57507f5b5e139f000000000000000000000000000000000000000000000000000000007bffffffffffffffffffffffffffffffffffffffffffffffffffffffff1916827bffffffffffffffffffffffffffffffffffffffffffffffffffffffff1916145b8061072f575061072e82612142565b5b9050919050565b606060008054610745906144b2565b80601f0160208091040260200160405190810160405280929190818152602001828054610771906144b2565b80156107be5780601f10610793576101008083540402835291602001916107be565b820191906000526020600020905b8154815290600101906020018083116107a157829003601f168201915b5050505050905090565b60006107d3826121ac565b6004600083815260200190815260200160002060009054906101000a900473ffffffffffffffffffffffffffffffffffffffff169050919050565b6000610819826115eb565b90508073ffffffffffffffffffffffffffffffffffffffff168373ffffffffffffffffffffffffffffffffffffffff16141561088a576040517f08c379a000000000000000000000000000000000000000000000000000000000815260040161088190614182565b60405180910390fd5b8073ffffffffffffffffffffffffffffffffffffffff166108a96121f7565b73ffffffffffffffffffffffffffffffffffffffff1614806108d857506108d7816108d26121f7565b6120ae565b5b610917576040517f08c379a000000000000000000000000000000000000000000000000000000000815260040161090e906141c2565b60405180910390fd5b61092183836121ff565b505050565b6060600061093460076122b8565b9050600061094260086122b8565b61094c60076122b8565b61095691906143b6565b90506000808267ffffffffffffffff81111561099b577f4e487b7100000000000000000000000000000000000000000000000000000000600052604160045260246000fd5b6040519080825280602002602001820160405280156109d457816020015b6109c1613463565b8152602001906001900390816109b95790505b50905060005b84811015610bd0573073ffffffffffffffffffffffffffffffffffffffff16600b6000600184610a0a9190614360565b815260200190815260200160002060020160009054906101000a900473ffffffffffffffffffffffffffffffffffffffff1673ffffffffffffffffffffffffffffffffffffffff161415610bbd576000600182610a679190614360565b90506000600b60008381526020019081526020016000209050806040518060a0016040529081600082015481526020016001820160009054906101000a900473ffffffffffffffffffffffffffffffffffffffff1673ffffffffffffffffffffffffffffffffffffffff1673ffffffffffffffffffffffffffffffffffffffff1681526020016002820160009054906101000a900473ffffffffffffffffffffffffffffffffffffffff1673ffffffffffffffffffffffffffffffffffffffff1673ffffffffffffffffffffffffffffffffffffffff168152602001600382015481526020016004820160009054906101000a900460ff161515151581525050848681518110610ba0577f4e487b7100000000000000000000000000000000000000000000000000000000600052603260045260246000fd5b6020026020010181905250600185610bb89190614360565b945050505b8080610bc890614515565b9150506109da565b508094505050505090565b6000600954905090565b600073ffffffffffffffffffffffffffffffffffffffff16600c60008473ffffffffffffffffffffffffffffffffffffffff1673ffffffffffffffffffffffffffffffffffffffff16815260200190815260200160002060000160009054906101000a900473ffffffffffffffffffffffffffffffffffffffff1673ffffffffffffffffffffffffffffffffffffffff1614610cb6576040517f08c379a0000000000000000000000000000000000000000000000000000000008152600401610cad906141e2565b60405180910390fd5b600060405180604001604052808473ffffffffffffffffffffffffffffffffffffffff16815260200183815250905080600c60008573ffffffffffffffffffffffffffffffffffffffff1673ffffffffffffffffffffffffffffffffffffffff16815260200190815260200160002060008201518160000160006101000a81548173ffffffffffffffffffffffffffffffffffffffff021916908373ffffffffffffffffffffffffffffffffffffffff1602179055506020820151816001019080519060200190610d889291906134c0565b50905050600d81908060018154018082558091505060019003906000526020600020906002020160009091909190915060008201518160000160006101000a81548173ffffffffffffffffffffffffffffffffffffffff021916908373ffffffffffffffffffffffffffffffffffffffff1602179055506020820151816001019080519060200190610e1b9291906134c0565b5050507fc099bb576ab769941d5df2a2e3a78102b73a991c8995d492f8ff2b716fe755348383604051610e4f929190613f33565b60405180910390a1505050565b60606000610e6a60076122b8565b905060008060005b83811015610f13573373ffffffffffffffffffffffffffffffffffffffff16600b6000600184610ea29190614360565b815260200190815260200160002060020160009054906101000a900473ffffffffffffffffffffffffffffffffffffffff1673ffffffffffffffffffffffffffffffffffffffff161415610f0057600183610efd9190614360565b92505b8080610f0b90614515565b915050610e72565b5060008267ffffffffffffffff811115610f56577f4e487b7100000000000000000000000000000000000000000000000000000000600052604160045260246000fd5b604051908082528060200260200182016040528015610f8f57816020015b610f7c613463565b815260200190600190039081610f745790505b50905060005b8481101561118b573373ffffffffffffffffffffffffffffffffffffffff16600b6000600184610fc59190614360565b815260200190815260200160002060020160009054906101000a900473ffffffffffffffffffffffffffffffffffffffff1673ffffffffffffffffffffffffffffffffffffffff1614156111785760006001826110229190614360565b90506000600b60008381526020019081526020016000209050806040518060a0016040529081600082015481526020016001820160009054906101000a900473ffffffffffffffffffffffffffffffffffffffff1673ffffffffffffffffffffffffffffffffffffffff1673ffffffffffffffffffffffffffffffffffffffff1681526020016002820160009054906101000a900473ffffffffffffffffffffffffffffffffffffffff1673ffffffffffffffffffffffffffffffffffffffff1673ffffffffffffffffffffffffffffffffffffffff168152602001600382015481526020016004820160009054906101000a900460ff16151515158152505084868151811061115b577f4e487b7100000000000000000000000000000000000000000000000000000000600052603260045260246000fd5b60200260200101819052506001856111739190614360565b945050505b808061118390614515565b915050610f95565b508094505050505090565b6111a76111a16121f7565b826122c6565b6111e6576040517f08c379a00000000000000000000000000000000000000000000000000000000081526004016111dd90613fc2565b60405180910390fd5b6111f183838361235b565b505050565b60008073ffffffffffffffffffffffffffffffffffffffff16600c60008473ffffffffffffffffffffffffffffffffffffffff1673ffffffffffffffffffffffffffffffffffffffff16815260200190815260200160002060000160009054906101000a900473ffffffffffffffffffffffffffffffffffffffff1673ffffffffffffffffffffffffffffffffffffffff1614159050919050565b6112ac83838360405180602001604052806000815250611a30565b505050565b606060006112bf60076122b8565b905060008060005b83811015611368573373ffffffffffffffffffffffffffffffffffffffff16600b60006001846112f79190614360565b815260200190815260200160002060010160009054906101000a900473ffffffffffffffffffffffffffffffffffffffff1673ffffffffffffffffffffffffffffffffffffffff161415611355576001836113529190614360565b92505b808061136090614515565b9150506112c7565b5060008267ffffffffffffffff8111156113ab577f4e487b7100000000000000000000000000000000000000000000000000000000600052604160045260246000fd5b6040519080825280602002602001820160405280156113e457816020015b6113d1613463565b8152602001906001900390816113c95790505b50905060005b848110156115e0573373ffffffffffffffffffffffffffffffffffffffff16600b600060018461141a9190614360565b815260200190815260200160002060010160009054906101000a900473ffffffffffffffffffffffffffffffffffffffff1673ffffffffffffffffffffffffffffffffffffffff1614156115cd5760006001826114779190614360565b90506000600b60008381526020019081526020016000209050806040518060a0016040529081600082015481526020016001820160009054906101000a900473ffffffffffffffffffffffffffffffffffffffff1673ffffffffffffffffffffffffffffffffffffffff1673ffffffffffffffffffffffffffffffffffffffff1681526020016002820160009054906101000a900473ffffffffffffffffffffffffffffffffffffffff1673ffffffffffffffffffffffffffffffffffffffff1673ffffffffffffffffffffffffffffffffffffffff168152602001600382015481526020016004820160009054906101000a900460ff1615151515815250508486815181106115b0577f4e487b7100000000000000000000000000000000000000000000000000000000600052603260045260246000fd5b60200260200101819052506001856115c89190614360565b945050505b80806115d890614515565b9150506113ea565b508094505050505090565b6000806115f783612655565b9050600073ffffffffffffffffffffffffffffffffffffffff168173ffffffffffffffffffffffffffffffffffffffff161415611669576040517f08c379a000000000000000000000000000000000000000000000000000000000815260040161166090614162565b60405180910390fd5b80915050919050565b60008073ffffffffffffffffffffffffffffffffffffffff168273ffffffffffffffffffffffffffffffffffffffff1614156116e3576040517f08c379a00000000000000000000000000000000000000000000000000000000081526004016116da906140a2565b60405180910390fd5b600360008373ffffffffffffffffffffffffffffffffffffffff1673ffffffffffffffffffffffffffffffffffffffff168152602001908152602001600020549050919050565b60006117366007612692565b600061174260076122b8565b905061174e33826126a8565b61175881856128c6565b611762818461293a565b8091505092915050565b600a60009054906101000a900473ffffffffffffffffffffffffffffffffffffffff1681565b6060600180546117a1906144b2565b80601f01602080910402602001604051908101604052809291908181526020018280546117cd906144b2565b801561181a5780601f106117ef5761010080835404028352916020019161181a565b820191906000526020600020905b8154815290600101906020018083116117fd57829003601f168201915b5050505050905090565b600c6020528060005260406000206000915090508060000160009054906101000a900473ffffffffffffffffffffffffffffffffffffffff169080600101805461186d906144b2565b80601f0160208091040260200160405190810160405280929190818152602001828054611899906144b2565b80156118e65780601f106118bb576101008083540402835291602001916118e6565b820191906000526020600020905b8154815290600101906020018083116118c957829003601f168201915b5050505050905082565b6119026118fb6121f7565b8383612b3d565b5050565b600a60009054906101000a900473ffffffffffffffffffffffffffffffffffffffff1673ffffffffffffffffffffffffffffffffffffffff163373ffffffffffffffffffffffffffffffffffffffff1614611996576040517f08c379a000000000000000000000000000000000000000000000000000000000815260040161198d90614142565b60405180910390fd5b3373ffffffffffffffffffffffffffffffffffffffff16600a60009054906101000a900473ffffffffffffffffffffffffffffffffffffffff1673ffffffffffffffffffffffffffffffffffffffff1614611a26576040517f08c379a0000000000000000000000000000000000000000000000000000000008152600401611a1d90614202565b60405180910390fd5b8060098190555050565b611a41611a3b6121f7565b836122c6565b611a80576040517f08c379a0000000000000000000000000000000000000000000000000000000008152600401611a7790613fc2565b60405180910390fd5b611a8c84848484612caa565b50505050565b6000600b6000838152602001908152602001600020600301549050803414611aef576040517f08c379a0000000000000000000000000000000000000000000000000000000008152600401611ae6906140e2565b60405180910390fd5b33600b600084815260200190815260200160002060020160006101000a81548173ffffffffffffffffffffffffffffffffffffffff021916908373ffffffffffffffffffffffffffffffffffffffff1602179055506001600b600084815260200190815260200160002060040160006101000a81548160ff0219169083151502179055506000600b600084815260200190815260200160002060010160006101000a81548173ffffffffffffffffffffffffffffffffffffffff021916908373ffffffffffffffffffffffffffffffffffffffff160217905550611bd36008612692565b611bde30338461235b565b600a60009054906101000a900473ffffffffffffffffffffffffffffffffffffffff1673ffffffffffffffffffffffffffffffffffffffff166108fc6009549081150290604051600060405180830381858888f19350505050158015611c48573d6000803e3d6000fd5b50600b600083815260200190815260200160002060010160009054906101000a900473ffffffffffffffffffffffffffffffffffffffff1673ffffffffffffffffffffffffffffffffffffffff166108fc349081150290604051600060405180830381858888f19350505050158015611cc5573d6000803e3d6000fd5b505050565b6060611cd5826121ac565b6000600660008481526020019081526020016000208054611cf5906144b2565b80601f0160208091040260200160405190810160405280929190818152602001828054611d21906144b2565b8015611d6e5780601f10611d4357610100808354040283529160200191611d6e565b820191906000526020600020905b815481529060010190602001808311611d5157829003601f168201915b505050505090506000611d7f612d06565b9050600081511415611d95578192505050611dd8565b600082511115611dca578082604051602001611db2929190613e48565b60405160208183030381529060405292505050611dd8565b611dd384612d1d565b925050505b919050565b600d8181548110611ded57600080fd5b90600052602060002090600202016000915090508060000160009054906101000a900473ffffffffffffffffffffffffffffffffffffffff1690806001018054611e36906144b2565b80601f0160208091040260200160405190810160405280929190818152602001828054611e62906144b2565b8015611eaf5780601f10611e8457610100808354040283529160200191611eaf565b820191906000526020600020905b815481529060010190602001808311611e9257829003601f168201915b5050505050905082565b3373ffffffffffffffffffffffffffffffffffffffff16600b600084815260200190815260200160002060020160009054906101000a900473ffffffffffffffffffffffffffffffffffffffff1673ffffffffffffffffffffffffffffffffffffffff1614611f5d576040517f08c379a0000000000000000000000000000000000000000000000000000000008152600401611f5490614122565b60405180910390fd5b6009543414611fa1576040517f08c379a0000000000000000000000000000000000000000000000000000000008152600401611f98906141a2565b60405180910390fd5b6000600b600084815260200190815260200160002060040160006101000a81548160ff02191690831515021790555080600b60008481526020019081526020016000206003018190555033600b600084815260200190815260200160002060010160006101000a81548173ffffffffffffffffffffffffffffffffffffffff021916908373ffffffffffffffffffffffffffffffffffffffff16021790555030600b600084815260200190815260200160002060020160006101000a81548173ffffffffffffffffffffffffffffffffffffffff021916908373ffffffffffffffffffffffffffffffffffffffff16021790555061209f6008612d85565b6120aa33308461235b565b5050565b6000600560008473ffffffffffffffffffffffffffffffffffffffff1673ffffffffffffffffffffffffffffffffffffffff16815260200190815260200160002060008373ffffffffffffffffffffffffffffffffffffffff1673ffffffffffffffffffffffffffffffffffffffff16815260200190815260200160002060009054906101000a900460ff16905092915050565b60007f01ffc9a7000000000000000000000000000000000000000000000000000000007bffffffffffffffffffffffffffffffffffffffffffffffffffffffff1916827bffffffffffffffffffffffffffffffffffffffffffffffffffffffff1916149050919050565b6121b581612de1565b6121f4576040517f08c379a00000000000000000000000000000000000000000000000000000000081526004016121eb90614162565b60405180910390fd5b50565b600033905090565b816004600083815260200190815260200160002060006101000a81548173ffffffffffffffffffffffffffffffffffffffff021916908373ffffffffffffffffffffffffffffffffffffffff160217905550808273ffffffffffffffffffffffffffffffffffffffff16612272836115eb565b73ffffffffffffffffffffffffffffffffffffffff167f8c5be1e5ebec7d5bd14f71427d1e84f3dd0314c0f7b2291e5b200ac8c7c3b92560405160405180910390a45050565b600081600001549050919050565b6000806122d2836115eb565b90508073ffffffffffffffffffffffffffffffffffffffff168473ffffffffffffffffffffffffffffffffffffffff161480612314575061231381856120ae565b5b8061235257508373ffffffffffffffffffffffffffffffffffffffff1661233a846107c8565b73ffffffffffffffffffffffffffffffffffffffff16145b91505092915050565b8273ffffffffffffffffffffffffffffffffffffffff1661237b826115eb565b73ffffffffffffffffffffffffffffffffffffffff16146123d1576040517f08c379a00000000000000000000000000000000000000000000000000000000081526004016123c890614022565b60405180910390fd5b600073ffffffffffffffffffffffffffffffffffffffff168273ffffffffffffffffffffffffffffffffffffffff161415612441576040517f08c379a000000000000000000000000000000000000000000000000000000000815260040161243890614062565b60405180910390fd5b61244e8383836001612e22565b8273ffffffffffffffffffffffffffffffffffffffff1661246e826115eb565b73ffffffffffffffffffffffffffffffffffffffff16146124c4576040517f08c379a00000000000000000000000000000000000000000000000000000000081526004016124bb90614022565b60405180910390fd5b6004600082815260200190815260200160002060006101000a81549073ffffffffffffffffffffffffffffffffffffffff02191690556001600360008573ffffffffffffffffffffffffffffffffffffffff1673ffffffffffffffffffffffffffffffffffffffff168152602001908152602001600020600082825403925050819055506001600360008473ffffffffffffffffffffffffffffffffffffffff1673ffffffffffffffffffffffffffffffffffffffff16815260200190815260200160002060008282540192505081905550816002600083815260200190815260200160002060006101000a81548173ffffffffffffffffffffffffffffffffffffffff021916908373ffffffffffffffffffffffffffffffffffffffff160217905550808273ffffffffffffffffffffffffffffffffffffffff168473ffffffffffffffffffffffffffffffffffffffff167fddf252ad1be2c89b69c2b068fc378daa952ba7f163c4a11628f55a4df523b3ef60405160405180910390a46126508383836001612f48565b505050565b60006002600083815260200190815260200160002060009054906101000a900473ffffffffffffffffffffffffffffffffffffffff169050919050565b6001816000016000828254019250508190555050565b600073ffffffffffffffffffffffffffffffffffffffff168273ffffffffffffffffffffffffffffffffffffffff161415612718576040517f08c379a000000000000000000000000000000000000000000000000000000000815260040161270f90614102565b60405180910390fd5b61272181612de1565b15612761576040517f08c379a000000000000000000000000000000000000000000000000000000000815260040161275890614042565b60405180910390fd5b61276f600083836001612e22565b61277881612de1565b156127b8576040517f08c379a00000000000000000000000000000000000000000000000000000000081526004016127af90614042565b60405180910390fd5b6001600360008473ffffffffffffffffffffffffffffffffffffffff1673ffffffffffffffffffffffffffffffffffffffff16815260200190815260200160002060008282540192505081905550816002600083815260200190815260200160002060006101000a81548173ffffffffffffffffffffffffffffffffffffffff021916908373ffffffffffffffffffffffffffffffffffffffff160217905550808273ffffffffffffffffffffffffffffffffffffffff16600073ffffffffffffffffffffffffffffffffffffffff167fddf252ad1be2c89b69c2b068fc378daa952ba7f163c4a11628f55a4df523b3ef60405160405180910390a46128c2600083836001612f48565b5050565b6128cf82612de1565b61290e576040517f08c379a0000000000000000000000000000000000000000000000000000000008152600401612905906140c2565b60405180910390fd5b806006600084815260200190815260200160002090805190602001906129359291906134c0565b505050565b6000811161297d576040517f08c379a000000000000000000000000000000000000000000000000000000000815260040161297490614222565b60405180910390fd5b60095434146129c1576040517f08c379a00000000000000000000000000000000000000000000000000000000081526004016129b8906141a2565b60405180910390fd5b6040518060a001604052808381526020013373ffffffffffffffffffffffffffffffffffffffff1681526020013073ffffffffffffffffffffffffffffffffffffffff16815260200182815260200160001515815250600b60008481526020019081526020016000206000820151816000015560208201518160010160006101000a81548173ffffffffffffffffffffffffffffffffffffffff021916908373ffffffffffffffffffffffffffffffffffffffff16021790555060408201518160020160006101000a81548173ffffffffffffffffffffffffffffffffffffffff021916908373ffffffffffffffffffffffffffffffffffffffff1602179055506060820151816003015560808201518160040160006101000a81548160ff021916908315150217905550905050612afa33308461235b565b817fb640004f1d14576d0c209e240cad0410e0d8c0c33a09375861fbadae2588a98d3330846000604051612b319493929190613ea2565b60405180910390a25050565b8173ffffffffffffffffffffffffffffffffffffffff168373ffffffffffffffffffffffffffffffffffffffff161415612bac576040517f08c379a0000000000000000000000000000000000000000000000000000000008152600401612ba390614082565b60405180910390fd5b80600560008573ffffffffffffffffffffffffffffffffffffffff1673ffffffffffffffffffffffffffffffffffffffff16815260200190815260200160002060008473ffffffffffffffffffffffffffffffffffffffff1673ffffffffffffffffffffffffffffffffffffffff16815260200190815260200160002060006101000a81548160ff0219169083151502179055508173ffffffffffffffffffffffffffffffffffffffff168373ffffffffffffffffffffffffffffffffffffffff167f17307eab39ab6107e8899845ad3d59bd9653f200f220920489ca2b5937696c3183604051612c9d9190613f85565b60405180910390a3505050565b612cb584848461235b565b612cc184848484612f4e565b612d00576040517f08c379a0000000000000000000000000000000000000000000000000000000008152600401612cf790614002565b60405180910390fd5b50505050565b606060405180602001604052806000815250905090565b6060612d28826121ac565b6000612d32612d06565b90506000815111612d525760405180602001604052806000815250612d7d565b80612d5c846130e5565b604051602001612d6d929190613e48565b6040516020818303038152906040525b915050919050565b60008160000154905060008111612dd1576040517f08c379a0000000000000000000000000000000000000000000000000000000008152600401612dc890613fe2565b60405180910390fd5b6001810382600001819055505050565b60008073ffffffffffffffffffffffffffffffffffffffff16612e0383612655565b73ffffffffffffffffffffffffffffffffffffffff1614159050919050565b6001811115612f4257600073ffffffffffffffffffffffffffffffffffffffff168473ffffffffffffffffffffffffffffffffffffffff1614612eb65780600360008673ffffffffffffffffffffffffffffffffffffffff1673ffffffffffffffffffffffffffffffffffffffff1681526020019081526020016000206000828254612eae91906143b6565b925050819055505b600073ffffffffffffffffffffffffffffffffffffffff168373ffffffffffffffffffffffffffffffffffffffff1614612f415780600360008573ffffffffffffffffffffffffffffffffffffffff1673ffffffffffffffffffffffffffffffffffffffff1681526020019081526020016000206000828254612f399190614360565b925050819055505b5b50505050565b50505050565b6000612f6f8473ffffffffffffffffffffffffffffffffffffffff16613209565b156130d8578373ffffffffffffffffffffffffffffffffffffffff1663150b7a02612f986121f7565b8786866040518563ffffffff1660e01b8152600401612fba9493929190613ee7565b602060405180830381600087803b158015612fd457600080fd5b505af192505050801561300557506040513d601f19601f8201168201806040525081019061300291906138c0565b60015b613088573d8060008114613035576040519150601f19603f3d011682016040523d82523d6000602084013e61303a565b606091505b50600081511415613080576040517f08c379a000000000000000000000000000000000000000000000000000000000815260040161307790614002565b60405180910390fd5b805181602001fd5b63150b7a0260e01b7bffffffffffffffffffffffffffffffffffffffffffffffffffffffff1916817bffffffffffffffffffffffffffffffffffffffffffffffffffffffff1916149150506130dd565b600190505b949350505050565b6060600060016130f48461322c565b01905060008167ffffffffffffffff811115613139577f4e487b7100000000000000000000000000000000000000000000000000000000600052604160045260246000fd5b6040519080825280601f01601f19166020018201604052801561316b5781602001600182028036833780820191505090505b509050600082602001820190505b6001156131fe578080600190039150507f3031323334353637383961626364656600000000000000000000000000000000600a86061a8153600a85816131e8577f4e487b7100000000000000000000000000000000000000000000000000000000600052601260045260246000fd5b04945060008514156131f9576131fe565b613179565b819350505050919050565b6000808273ffffffffffffffffffffffffffffffffffffffff163b119050919050565b600080600090507a184f03e93ff9f4daa797ed6e38ed64bf6a1f01000000000000000083106132b0577a184f03e93ff9f4daa797ed6e38ed64bf6a1f01000000000000000083816132a6577f4e487b7100000000000000000000000000000000000000000000000000000000600052601260045260246000fd5b0492506040810190505b6d04ee2d6d415b85acef81000000008310613313576d04ee2d6d415b85acef81000000008381613309577f4e487b7100000000000000000000000000000000000000000000000000000000600052601260045260246000fd5b0492506020810190505b662386f26fc10000831061336857662386f26fc10000838161335e577f4e487b7100000000000000000000000000000000000000000000000000000000600052601260045260246000fd5b0492506010810190505b6305f5e10083106133b7576305f5e10083816133ad577f4e487b7100000000000000000000000000000000000000000000000000000000600052601260045260246000fd5b0492506008810190505b61271083106134025761271083816133f8577f4e487b7100000000000000000000000000000000000000000000000000000000600052601260045260246000fd5b0492506004810190505b6064831061344b5760648381613441577f4e487b7100000000000000000000000000000000000000000000000000000000600052601260045260246000fd5b0492506002810190505b600a831061345a576001810190505b80915050919050565b6040518060a0016040528060008152602001600073ffffffffffffffffffffffffffffffffffffffff168152602001600073ffffffffffffffffffffffffffffffffffffffff168152602001600081526020016000151581525090565b8280546134cc906144b2565b90600052602060002090601f0160209004810192826134ee5760008555613535565b82601f1061350757805160ff1916838001178555613535565b82800160010185558215613535579182015b82811115613534578251825591602001919060010190613519565b5b5090506135429190613546565b5090565b5b8082111561355f576000816000905550600101613547565b5090565b600061357661357184614282565b61425d565b90508281526020810184848401111561358e57600080fd5b613599848285614470565b509392505050565b60006135b46135af846142b3565b61425d565b9050828152602081018484840111156135cc57600080fd5b6135d7848285614470565b509392505050565b6000813590506135ee81614b44565b92915050565b60008135905061360381614b5b565b92915050565b60008135905061361881614b72565b92915050565b60008151905061362d81614b72565b92915050565b600082601f83011261364457600080fd5b8135613654848260208601613563565b91505092915050565b600082601f83011261366e57600080fd5b813561367e8482602086016135a1565b91505092915050565b60008135905061369681614b89565b92915050565b6000602082840312156136ae57600080fd5b60006136bc848285016135df565b91505092915050565b600080604083850312156136d857600080fd5b60006136e6858286016135df565b92505060206136f7858286016135df565b9150509250929050565b60008060006060848603121561371657600080fd5b6000613724868287016135df565b9350506020613735868287016135df565b925050604061374686828701613687565b9150509250925092565b6000806000806080858703121561376657600080fd5b6000613774878288016135df565b9450506020613785878288016135df565b935050604061379687828801613687565b925050606085013567ffffffffffffffff8111156137b357600080fd5b6137bf87828801613633565b91505092959194509250565b600080604083850312156137de57600080fd5b60006137ec858286016135df565b92505060206137fd858286016135f4565b9150509250929050565b6000806040838503121561381a57600080fd5b6000613828858286016135df565b925050602083013567ffffffffffffffff81111561384557600080fd5b6138518582860161365d565b9150509250929050565b6000806040838503121561386e57600080fd5b600061387c858286016135df565b925050602061388d85828601613687565b9150509250929050565b6000602082840312156138a957600080fd5b60006138b784828501613609565b91505092915050565b6000602082840312156138d257600080fd5b60006138e08482850161361e565b91505092915050565b600080604083850312156138fc57600080fd5b600083013567ffffffffffffffff81111561391657600080fd5b6139228582860161365d565b925050602061393385828601613687565b9150509250929050565b60006020828403121561394f57600080fd5b600061395d84828501613687565b91505092915050565b6000806040838503121561397957600080fd5b600061398785828601613687565b925050602061399885828601613687565b9150509250929050565b60006139ae8383613dc2565b60a08301905092915050565b6139c3816143fc565b82525050565b6139d2816143fc565b82525050565b6139e1816143ea565b82525050565b60006139f2826142f4565b6139fc8185614322565b9350613a07836142e4565b8060005b83811015613a38578151613a1f88826139a2565b9750613a2a83614315565b925050600181019050613a0b565b5085935050505092915050565b613a4e8161440e565b82525050565b613a5d8161440e565b82525050565b6000613a6e826142ff565b613a788185614333565b9350613a8881856020860161447f565b613a91816145eb565b840191505092915050565b6000613aa78261430a565b613ab18185614344565b9350613ac181856020860161447f565b613aca816145eb565b840191505092915050565b6000613ae08261430a565b613aea8185614355565b9350613afa81856020860161447f565b80840191505092915050565b6000613b13602d83614344565b9150613b1e826145fc565b604082019050919050565b6000613b36601b83614344565b9150613b418261464b565b602082019050919050565b6000613b59603283614344565b9150613b6482614674565b604082019050919050565b6000613b7c602583614344565b9150613b87826146c3565b604082019050919050565b6000613b9f601c83614344565b9150613baa82614712565b602082019050919050565b6000613bc2602483614344565b9150613bcd8261473b565b604082019050919050565b6000613be5601983614344565b9150613bf08261478a565b602082019050919050565b6000613c08602983614344565b9150613c13826147b3565b604082019050919050565b6000613c2b602e83614344565b9150613c3682614802565b604082019050919050565b6000613c4e604083614344565b9150613c5982614851565b604082019050919050565b6000613c71602083614344565b9150613c7c826148a0565b602082019050919050565b6000613c94602a83614344565b9150613c9f826148c9565b604082019050919050565b6000613cb7603a83614344565b9150613cc282614918565b604082019050919050565b6000613cda601883614344565b9150613ce582614967565b602082019050919050565b6000613cfd602183614344565b9150613d0882614990565b604082019050919050565b6000613d20602483614344565b9150613d2b826149df565b604082019050919050565b6000613d43603d83614344565b9150613d4e82614a2e565b604082019050919050565b6000613d66602483614344565b9150613d7182614a7d565b604082019050919050565b6000613d89603083614344565b9150613d9482614acc565b604082019050919050565b6000613dac601c83614344565b9150613db782614b1b565b602082019050919050565b60a082016000820151613dd86000850182613e2a565b506020820151613deb60208501826139ba565b506040820151613dfe60408501826139ba565b506060820151613e116060850182613e2a565b506080820151613e246080850182613a45565b50505050565b613e3381614466565b82525050565b613e4281614466565b82525050565b6000613e548285613ad5565b9150613e608284613ad5565b91508190509392505050565b6000602082019050613e8160008301846139d8565b92915050565b6000602082019050613e9c60008301846139c9565b92915050565b6000608082019050613eb760008301876139d8565b613ec460208301866139d8565b613ed16040830185613e39565b613ede6060830184613a54565b95945050505050565b6000608082019050613efc60008301876139d8565b613f0960208301866139d8565b613f166040830185613e39565b8181036060830152613f288184613a63565b905095945050505050565b6000604082019050613f4860008301856139d8565b8181036020830152613f5a8184613a9c565b90509392505050565b60006020820190508181036000830152613f7d81846139e7565b905092915050565b6000602082019050613f9a6000830184613a54565b92915050565b60006020820190508181036000830152613fba8184613a9c565b905092915050565b60006020820190508181036000830152613fdb81613b06565b9050919050565b60006020820190508181036000830152613ffb81613b29565b9050919050565b6000602082019050818103600083015261401b81613b4c565b9050919050565b6000602082019050818103600083015261403b81613b6f565b9050919050565b6000602082019050818103600083015261405b81613b92565b9050919050565b6000602082019050818103600083015261407b81613bb5565b9050919050565b6000602082019050818103600083015261409b81613bd8565b9050919050565b600060208201905081810360008301526140bb81613bfb565b9050919050565b600060208201905081810360008301526140db81613c1e565b9050919050565b600060208201905081810360008301526140fb81613c41565b9050919050565b6000602082019050818103600083015261411b81613c64565b9050919050565b6000602082019050818103600083015261413b81613c87565b9050919050565b6000602082019050818103600083015261415b81613caa565b9050919050565b6000602082019050818103600083015261417b81613ccd565b9050919050565b6000602082019050818103600083015261419b81613cf0565b9050919050565b600060208201905081810360008301526141bb81613d13565b9050919050565b600060208201905081810360008301526141db81613d36565b9050919050565b600060208201905081810360008301526141fb81613d59565b9050919050565b6000602082019050818103600083015261421b81613d7c565b9050919050565b6000602082019050818103600083015261423b81613d9f565b9050919050565b60006020820190506142576000830184613e39565b92915050565b6000614267614278565b905061427382826144e4565b919050565b6000604051905090565b600067ffffffffffffffff82111561429d5761429c6145bc565b5b6142a6826145eb565b9050602081019050919050565b600067ffffffffffffffff8211156142ce576142cd6145bc565b5b6142d7826145eb565b9050602081019050919050565b6000819050602082019050919050565b600081519050919050565b600081519050919050565b600081519050919050565b6000602082019050919050565b600082825260208201905092915050565b600082825260208201905092915050565b600082825260208201905092915050565b600081905092915050565b600061436b82614466565b915061437683614466565b9250827fffffffffffffffffffffffffffffffffffffffffffffffffffffffffffffffff038211156143ab576143aa61455e565b5b828201905092915050565b60006143c182614466565b91506143cc83614466565b9250828210156143df576143de61455e565b5b828203905092915050565b60006143f582614446565b9050919050565b600061440782614446565b9050919050565b60008115159050919050565b60007fffffffff0000000000000000000000000000000000000000000000000000000082169050919050565b600073ffffffffffffffffffffffffffffffffffffffff82169050919050565b6000819050919050565b82818337600083830152505050565b60005b8381101561449d578082015181840152602081019050614482565b838111156144ac576000848401525b50505050565b600060028204905060018216806144ca57607f821691505b602082108114156144de576144dd61458d565b5b50919050565b6144ed826145eb565b810181811067ffffffffffffffff8211171561450c5761450b6145bc565b5b80604052505050565b600061452082614466565b91507fffffffffffffffffffffffffffffffffffffffffffffffffffffffffffffffff8214156145535761455261455e565b5b600182019050919050565b7f4e487b7100000000000000000000000000000000000000000000000000000000600052601160045260246000fd5b7f4e487b7100000000000000000000000000000000000000000000000000000000600052602260045260246000fd5b7f4e487b7100000000000000000000000000000000000000000000000000000000600052604160045260246000fd5b6000601f19601f8301169050919050565b7f4552433732313a2063616c6c6572206973206e6f7420746f6b656e206f776e6560008201527f72206f7220617070726f76656400000000000000000000000000000000000000602082015250565b7f436f756e7465723a2064656372656d656e74206f766572666c6f770000000000600082015250565b7f4552433732313a207472616e7366657220746f206e6f6e20455243373231526560008201527f63656976657220696d706c656d656e7465720000000000000000000000000000602082015250565b7f4552433732313a207472616e736665722066726f6d20696e636f72726563742060008201527f6f776e6572000000000000000000000000000000000000000000000000000000602082015250565b7f4552433732313a20746f6b656e20616c7265616479206d696e74656400000000600082015250565b7f4552433732313a207472616e7366657220746f20746865207a65726f2061646460008201527f7265737300000000000000000000000000000000000000000000000000000000602082015250565b7f4552433732313a20617070726f766520746f2063616c6c657200000000000000600082015250565b7f4552433732313a2061646472657373207a65726f206973206e6f74206120766160008201527f6c6964206f776e65720000000000000000000000000000000000000000000000602082015250565b7f45524337323155524953746f726167653a2055524920736574206f66206e6f6e60008201527f6578697374656e7420746f6b656e000000000000000000000000000000000000602082015250565b7f506c65617365207375626d6974207468652061736b696e67207072696365206960008201527f6e206f7264657220746f20636f6d706c65746520746865207075726368617365602082015250565b7f4552433732313a206d696e7420746f20746865207a65726f2061646472657373600082015250565b7f4f6e6c79206974656d206f776e65722063616e20706572666f726d207468697360008201527f206f7065726174696f6e00000000000000000000000000000000000000000000602082015250565b7f6f6e6c79206f776e6572206f6620746865206d61726b6574706c61636520636160008201527f6e206368616e676520746865206c697374696e67207072696365000000000000602082015250565b7f4552433732313a20696e76616c696420746f6b656e2049440000000000000000600082015250565b7f4552433732313a20617070726f76616c20746f2063757272656e74206f776e6560008201527f7200000000000000000000000000000000000000000000000000000000000000602082015250565b7f5072696365206d75737420626520657175616c20746f206c697374696e67207060008201527f7269636500000000000000000000000000000000000000000000000000000000602082015250565b7f4552433732313a20617070726f76652063616c6c6572206973206e6f7420746f60008201527f6b656e206f776e6572206f7220617070726f76656420666f7220616c6c000000602082015250565b7f4164647265737320697320616c7265616479206f6e207468652077686974656c60008201527f6973742e00000000000000000000000000000000000000000000000000000000602082015250565b7f4f6e6c79206d61726b6574706c616365206f776e65722063616e20757064617460008201527f65206c697374696e672070726963652e00000000000000000000000000000000602082015250565b7f5072696365206d757374206265206174206c6561737420312077656900000000600082015250565b614b4d816143ea565b8114614b5857600080fd5b50565b614b648161440e565b8114614b6f57600080fd5b50565b614b7b8161441a565b8114614b8657600080fd5b50565b614b9281614466565b8114614b9d57600080fd5b5056fea264697066735822122010085825221a2d1facdfa9e358c4d924983222db268a04325f700220fcac064d64736f6c63430008040033",
  "linkReferences": {},
  "deployedLinkReferences": {}
}